{
	"contracts/Warranty.sol": {
		"ProductWarranty": {
			"abi": [
				{
					"anonymous": false,
					"inputs": [
						{
							"indexed": false,
							"internalType": "uint256",
							"name": "id",
							"type": "uint256"
						},
						{
							"indexed": false,
							"internalType": "address",
							"name": "owner",
							"type": "address"
						},
						{
							"indexed": false,
							"internalType": "string",
							"name": "productName",
							"type": "string"
						},
						{
							"indexed": false,
							"internalType": "uint256",
							"name": "purchaseDate",
							"type": "uint256"
						},
						{
							"indexed": false,
							"internalType": "uint256",
							"name": "expirationDate",
							"type": "uint256"
						}
					],
					"name": "WarrantyMinted",
					"type": "event"
				},
				{
					"inputs": [
						{
							"internalType": "uint256",
							"name": "_id",
							"type": "uint256"
						}
					],
					"name": "getWarranty",
					"outputs": [
						{
							"components": [
								{
									"internalType": "uint256",
									"name": "id",
									"type": "uint256"
								},
								{
									"internalType": "address",
									"name": "owner",
									"type": "address"
								},
								{
									"internalType": "string",
									"name": "productName",
									"type": "string"
								},
								{
									"internalType": "uint256",
									"name": "purchaseDate",
									"type": "uint256"
								},
								{
									"internalType": "uint256",
									"name": "expirationDate",
									"type": "uint256"
								}
							],
							"internalType": "struct ProductWarranty.Warranty",
							"name": "",
							"type": "tuple"
						}
					],
					"stateMutability": "view",
					"type": "function"
				},
				{
					"inputs": [
						{
							"internalType": "string",
							"name": "_productName",
							"type": "string"
						},
						{
							"internalType": "uint256",
							"name": "_purchaseDate",
							"type": "uint256"
						},
						{
							"internalType": "uint256",
							"name": "_expirationDate",
							"type": "uint256"
						}
					],
					"name": "mintWarranty",
					"outputs": [],
					"stateMutability": "nonpayable",
					"type": "function"
				},
				{
					"inputs": [],
					"name": "nextWarrantyId",
					"outputs": [
						{
							"internalType": "uint256",
							"name": "",
							"type": "uint256"
						}
					],
					"stateMutability": "view",
					"type": "function"
				},
				{
					"inputs": [
						{
							"internalType": "uint256",
							"name": "",
							"type": "uint256"
						}
					],
					"name": "warranties",
					"outputs": [
						{
							"internalType": "uint256",
							"name": "id",
							"type": "uint256"
						},
						{
							"internalType": "address",
							"name": "owner",
							"type": "address"
						},
						{
							"internalType": "string",
							"name": "productName",
							"type": "string"
						},
						{
							"internalType": "uint256",
							"name": "purchaseDate",
							"type": "uint256"
						},
						{
							"internalType": "uint256",
							"name": "expirationDate",
							"type": "uint256"
						}
					],
					"stateMutability": "view",
					"type": "function"
				}
			],
			"devdoc": {
				"kind": "dev",
				"methods": {},
				"version": 1
			},
			"evm": {
				"assembly": "    /* \"contracts/Warranty.sol\":57:1197  contract ProductWarranty {... */\n  mstore(0x40, 0x80)\n  callvalue\n  dup1\n  iszero\n  tag_1\n  jumpi\n  0x00\n  dup1\n  revert\ntag_1:\n  pop\n  dataSize(sub_0)\n  dup1\n  dataOffset(sub_0)\n  0x00\n  codecopy\n  0x00\n  return\nstop\n\nsub_0: assembly {\n        /* \"contracts/Warranty.sol\":57:1197  contract ProductWarranty {... */\n      mstore(0x40, 0x80)\n      callvalue\n      dup1\n      iszero\n      tag_1\n      jumpi\n      0x00\n      dup1\n      revert\n    tag_1:\n      pop\n      jumpi(tag_2, lt(calldatasize, 0x04))\n      shr(0xe0, calldataload(0x00))\n      dup1\n      0x87ecff4d\n      eq\n      tag_3\n      jumpi\n      dup1\n      0x8c538226\n      eq\n      tag_4\n      jumpi\n      dup1\n      0xb806da4b\n      eq\n      tag_5\n      jumpi\n      dup1\n      0xe98cbb86\n      eq\n      tag_6\n      jumpi\n    tag_2:\n      0x00\n      dup1\n      revert\n        /* \"contracts/Warranty.sol\":442:471  uint256 public nextWarrantyId */\n    tag_3:\n      tag_7\n      tag_8\n      jump\t// in\n    tag_7:\n      mload(0x40)\n      tag_9\n      swap2\n      swap1\n      tag_10\n      jump\t// in\n    tag_9:\n      mload(0x40)\n      dup1\n      swap2\n      sub\n      swap1\n      return\n        /* \"contracts/Warranty.sol\":342:388  mapping(uint256 => Warranty) public warranties */\n    tag_4:\n      tag_11\n      0x04\n      dup1\n      calldatasize\n      sub\n      dup2\n      add\n      swap1\n      tag_12\n      swap2\n      swap1\n      tag_13\n      jump\t// in\n    tag_12:\n      tag_14\n      jump\t// in\n    tag_11:\n      mload(0x40)\n      tag_15\n      swap6\n      swap5\n      swap4\n      swap3\n      swap2\n      swap1\n      tag_16\n      jump\t// in\n    tag_15:\n      mload(0x40)\n      dup1\n      swap2\n      sub\n      swap1\n      return\n        /* \"contracts/Warranty.sol\":690:1029  function mintWarranty(string memory _productName, uint256 _purchaseDate, uint256 _expirationDate) public {... */\n    tag_5:\n      tag_17\n      0x04\n      dup1\n      calldatasize\n      sub\n      dup2\n      add\n      swap1\n      tag_18\n      swap2\n      swap1\n      tag_19\n      jump\t// in\n    tag_18:\n      tag_20\n      jump\t// in\n    tag_17:\n      stop\n        /* \"contracts/Warranty.sol\":1084:1195  function getWarranty(uint256 _id) public view returns (Warranty memory) {... */\n    tag_6:\n      tag_21\n      0x04\n      dup1\n      calldatasize\n      sub\n      dup2\n      add\n      swap1\n      tag_22\n      swap2\n      swap1\n      tag_13\n      jump\t// in\n    tag_22:\n      tag_23\n      jump\t// in\n    tag_21:\n      mload(0x40)\n      tag_24\n      swap2\n      swap1\n      tag_25\n      jump\t// in\n    tag_24:\n      mload(0x40)\n      dup1\n      swap2\n      sub\n      swap1\n      return\n        /* \"contracts/Warranty.sol\":442:471  uint256 public nextWarrantyId */\n    tag_8:\n      sload(0x01)\n      dup2\n      jump\t// out\n        /* \"contracts/Warranty.sol\":342:388  mapping(uint256 => Warranty) public warranties */\n    tag_14:\n      mstore(0x20, 0x00)\n      dup1\n      0x00\n      mstore\n      keccak256(0x00, 0x40)\n      0x00\n      swap2\n      pop\n      swap1\n      pop\n      dup1\n      0x00\n      add\n      sload\n      swap1\n      dup1\n      0x01\n      add\n      0x00\n      swap1\n      sload\n      swap1\n      0x0100\n      exp\n      swap1\n      div\n      0xffffffffffffffffffffffffffffffffffffffff\n      and\n      swap1\n      dup1\n      0x02\n      add\n      dup1\n      sload\n      tag_26\n      swap1\n      tag_27\n      jump\t// in\n    tag_26:\n      dup1\n      0x1f\n      add\n      0x20\n      dup1\n      swap2\n      div\n      mul\n      0x20\n      add\n      mload(0x40)\n      swap1\n      dup2\n      add\n      0x40\n      mstore\n      dup1\n      swap3\n      swap2\n      swap1\n      dup2\n      dup2\n      mstore\n      0x20\n      add\n      dup3\n      dup1\n      sload\n      tag_28\n      swap1\n      tag_27\n      jump\t// in\n    tag_28:\n      dup1\n      iszero\n      tag_29\n      jumpi\n      dup1\n      0x1f\n      lt\n      tag_30\n      jumpi\n      0x0100\n      dup1\n      dup4\n      sload\n      div\n      mul\n      dup4\n      mstore\n      swap2\n      0x20\n      add\n      swap2\n      jump(tag_29)\n    tag_30:\n      dup3\n      add\n      swap2\n      swap1\n      0x00\n      mstore\n      keccak256(0x00, 0x20)\n      swap1\n    tag_31:\n      dup2\n      sload\n      dup2\n      mstore\n      swap1\n      0x01\n      add\n      swap1\n      0x20\n      add\n      dup1\n      dup4\n      gt\n      tag_31\n      jumpi\n      dup3\n      swap1\n      sub\n      0x1f\n      and\n      dup3\n      add\n      swap2\n    tag_29:\n      pop\n      pop\n      pop\n      pop\n      pop\n      swap1\n      dup1\n      0x03\n      add\n      sload\n      swap1\n      dup1\n      0x04\n      add\n      sload\n      swap1\n      pop\n      dup6\n      jump\t// out\n        /* \"contracts/Warranty.sol\":690:1029  function mintWarranty(string memory _productName, uint256 _purchaseDate, uint256 _expirationDate) public {... */\n    tag_20:\n        /* \"contracts/Warranty.sol\":805:815  uint256 id */\n      0x00\n        /* \"contracts/Warranty.sol\":818:832  nextWarrantyId */\n      0x01\n      0x00\n        /* \"contracts/Warranty.sol\":818:834  nextWarrantyId++ */\n      dup2\n      sload\n      dup1\n      swap3\n      swap2\n      swap1\n      tag_33\n      swap1\n      tag_34\n      jump\t// in\n    tag_33:\n      swap2\n      swap1\n      pop\n      sstore\n        /* \"contracts/Warranty.sol\":805:834  uint256 id = nextWarrantyId++ */\n      swap1\n      pop\n        /* \"contracts/Warranty.sol\":861:931  Warranty(id, msg.sender, _productName, _purchaseDate, _expirationDate) */\n      mload(0x40)\n      dup1\n      0xa0\n      add\n      0x40\n      mstore\n      dup1\n        /* \"contracts/Warranty.sol\":870:872  id */\n      dup3\n        /* \"contracts/Warranty.sol\":861:931  Warranty(id, msg.sender, _productName, _purchaseDate, _expirationDate) */\n      dup2\n      mstore\n      0x20\n      add\n        /* \"contracts/Warranty.sol\":874:884  msg.sender */\n      caller\n        /* \"contracts/Warranty.sol\":861:931  Warranty(id, msg.sender, _productName, _purchaseDate, _expirationDate) */\n      0xffffffffffffffffffffffffffffffffffffffff\n      and\n      dup2\n      mstore\n      0x20\n      add\n        /* \"contracts/Warranty.sol\":886:898  _productName */\n      dup6\n        /* \"contracts/Warranty.sol\":861:931  Warranty(id, msg.sender, _productName, _purchaseDate, _expirationDate) */\n      dup2\n      mstore\n      0x20\n      add\n        /* \"contracts/Warranty.sol\":900:913  _purchaseDate */\n      dup5\n        /* \"contracts/Warranty.sol\":861:931  Warranty(id, msg.sender, _productName, _purchaseDate, _expirationDate) */\n      dup2\n      mstore\n      0x20\n      add\n        /* \"contracts/Warranty.sol\":915:930  _expirationDate */\n      dup4\n        /* \"contracts/Warranty.sol\":861:931  Warranty(id, msg.sender, _productName, _purchaseDate, _expirationDate) */\n      dup2\n      mstore\n      pop\n        /* \"contracts/Warranty.sol\":844:854  warranties */\n      0x00\n        /* \"contracts/Warranty.sol\":844:858  warranties[id] */\n      dup1\n        /* \"contracts/Warranty.sol\":855:857  id */\n      dup4\n        /* \"contracts/Warranty.sol\":844:858  warranties[id] */\n      dup2\n      mstore\n      0x20\n      add\n      swap1\n      dup2\n      mstore\n      0x20\n      add\n      0x00\n      keccak256\n        /* \"contracts/Warranty.sol\":844:931  warranties[id] = Warranty(id, msg.sender, _productName, _purchaseDate, _expirationDate) */\n      0x00\n      dup3\n      add\n      mload\n      dup2\n      0x00\n      add\n      sstore\n      0x20\n      dup3\n      add\n      mload\n      dup2\n      0x01\n      add\n      exp(0x0100, 0x00)\n      dup2\n      sload\n      dup2\n      0xffffffffffffffffffffffffffffffffffffffff\n      mul\n      not\n      and\n      swap1\n      dup4\n      0xffffffffffffffffffffffffffffffffffffffff\n      and\n      mul\n      or\n      swap1\n      sstore\n      pop\n      0x40\n      dup3\n      add\n      mload\n      dup2\n      0x02\n      add\n      swap1\n      dup2\n      tag_35\n      swap2\n      swap1\n      tag_36\n      jump\t// in\n    tag_35:\n      pop\n      0x60\n      dup3\n      add\n      mload\n      dup2\n      0x03\n      add\n      sstore\n      0x80\n      dup3\n      add\n      mload\n      dup2\n      0x04\n      add\n      sstore\n      swap1\n      pop\n      pop\n        /* \"contracts/Warranty.sol\":946:1022  WarrantyMinted(id, msg.sender, _productName, _purchaseDate, _expirationDate) */\n      0x119b0a53a720df144f10086ea1f93c5c7b3b60d135089452f40a4e34757d5814\n        /* \"contracts/Warranty.sol\":961:963  id */\n      dup2\n        /* \"contracts/Warranty.sol\":965:975  msg.sender */\n      caller\n        /* \"contracts/Warranty.sol\":977:989  _productName */\n      dup7\n        /* \"contracts/Warranty.sol\":991:1004  _purchaseDate */\n      dup7\n        /* \"contracts/Warranty.sol\":1006:1021  _expirationDate */\n      dup7\n        /* \"contracts/Warranty.sol\":946:1022  WarrantyMinted(id, msg.sender, _productName, _purchaseDate, _expirationDate) */\n      mload(0x40)\n      tag_37\n      swap6\n      swap5\n      swap4\n      swap3\n      swap2\n      swap1\n      tag_16\n      jump\t// in\n    tag_37:\n      mload(0x40)\n      dup1\n      swap2\n      sub\n      swap1\n      log1\n        /* \"contracts/Warranty.sol\":795:1029  {... */\n      pop\n        /* \"contracts/Warranty.sol\":690:1029  function mintWarranty(string memory _productName, uint256 _purchaseDate, uint256 _expirationDate) public {... */\n      pop\n      pop\n      pop\n      jump\t// out\n        /* \"contracts/Warranty.sol\":1084:1195  function getWarranty(uint256 _id) public view returns (Warranty memory) {... */\n    tag_23:\n        /* \"contracts/Warranty.sol\":1139:1154  Warranty memory */\n      tag_38\n      tag_39\n      jump\t// in\n    tag_38:\n        /* \"contracts/Warranty.sol\":1173:1183  warranties */\n      0x00\n        /* \"contracts/Warranty.sol\":1173:1188  warranties[_id] */\n      dup1\n        /* \"contracts/Warranty.sol\":1184:1187  _id */\n      dup4\n        /* \"contracts/Warranty.sol\":1173:1188  warranties[_id] */\n      dup2\n      mstore\n      0x20\n      add\n      swap1\n      dup2\n      mstore\n      0x20\n      add\n      0x00\n      keccak256\n        /* \"contracts/Warranty.sol\":1166:1188  return warranties[_id] */\n      mload(0x40)\n      dup1\n      0xa0\n      add\n      0x40\n      mstore\n      swap1\n      dup2\n      0x00\n      dup3\n      add\n      sload\n      dup2\n      mstore\n      0x20\n      add\n      0x01\n      dup3\n      add\n      0x00\n      swap1\n      sload\n      swap1\n      0x0100\n      exp\n      swap1\n      div\n      0xffffffffffffffffffffffffffffffffffffffff\n      and\n      0xffffffffffffffffffffffffffffffffffffffff\n      and\n      0xffffffffffffffffffffffffffffffffffffffff\n      and\n      dup2\n      mstore\n      0x20\n      add\n      0x02\n      dup3\n      add\n      dup1\n      sload\n      tag_41\n      swap1\n      tag_27\n      jump\t// in\n    tag_41:\n      dup1\n      0x1f\n      add\n      0x20\n      dup1\n      swap2\n      div\n      mul\n      0x20\n      add\n      mload(0x40)\n      swap1\n      dup2\n      add\n      0x40\n      mstore\n      dup1\n      swap3\n      swap2\n      swap1\n      dup2\n      dup2\n      mstore\n      0x20\n      add\n      dup3\n      dup1\n      sload\n      tag_42\n      swap1\n      tag_27\n      jump\t// in\n    tag_42:\n      dup1\n      iszero\n      tag_43\n      jumpi\n      dup1\n      0x1f\n      lt\n      tag_44\n      jumpi\n      0x0100\n      dup1\n      dup4\n      sload\n      div\n      mul\n      dup4\n      mstore\n      swap2\n      0x20\n      add\n      swap2\n      jump(tag_43)\n    tag_44:\n      dup3\n      add\n      swap2\n      swap1\n      0x00\n      mstore\n      keccak256(0x00, 0x20)\n      swap1\n    tag_45:\n      dup2\n      sload\n      dup2\n      mstore\n      swap1\n      0x01\n      add\n      swap1\n      0x20\n      add\n      dup1\n      dup4\n      gt\n      tag_45\n      jumpi\n      dup3\n      swap1\n      sub\n      0x1f\n      and\n      dup3\n      add\n      swap2\n    tag_43:\n      pop\n      pop\n      pop\n      pop\n      pop\n      dup2\n      mstore\n      0x20\n      add\n      0x03\n      dup3\n      add\n      sload\n      dup2\n      mstore\n      0x20\n      add\n      0x04\n      dup3\n      add\n      sload\n      dup2\n      mstore\n      pop\n      pop\n      swap1\n      pop\n        /* \"contracts/Warranty.sol\":1084:1195  function getWarranty(uint256 _id) public view returns (Warranty memory) {... */\n      swap2\n      swap1\n      pop\n      jump\t// out\n    tag_39:\n      mload(0x40)\n      dup1\n      0xa0\n      add\n      0x40\n      mstore\n      dup1\n      0x00\n      dup2\n      mstore\n      0x20\n      add\n      and(0xffffffffffffffffffffffffffffffffffffffff, 0x00)\n      dup2\n      mstore\n      0x20\n      add\n      0x60\n      dup2\n      mstore\n      0x20\n      add\n      0x00\n      dup2\n      mstore\n      0x20\n      add\n      0x00\n      dup2\n      mstore\n      pop\n      swap1\n      jump\t// out\n        /* \"#utility.yul\":7:84   */\n    tag_46:\n        /* \"#utility.yul\":44:51   */\n      0x00\n        /* \"#utility.yul\":73:78   */\n      dup2\n        /* \"#utility.yul\":62:78   */\n      swap1\n      pop\n        /* \"#utility.yul\":7:84   */\n      swap2\n      swap1\n      pop\n      jump\t// out\n        /* \"#utility.yul\":90:208   */\n    tag_47:\n        /* \"#utility.yul\":177:201   */\n      tag_95\n        /* \"#utility.yul\":195:200   */\n      dup2\n        /* \"#utility.yul\":177:201   */\n      tag_46\n      jump\t// in\n    tag_95:\n        /* \"#utility.yul\":172:175   */\n      dup3\n        /* \"#utility.yul\":165:202   */\n      mstore\n        /* \"#utility.yul\":90:208   */\n      pop\n      pop\n      jump\t// out\n        /* \"#utility.yul\":214:436   */\n    tag_10:\n        /* \"#utility.yul\":307:311   */\n      0x00\n        /* \"#utility.yul\":345:347   */\n      0x20\n        /* \"#utility.yul\":334:343   */\n      dup3\n        /* \"#utility.yul\":330:348   */\n      add\n        /* \"#utility.yul\":322:348   */\n      swap1\n      pop\n        /* \"#utility.yul\":358:429   */\n      tag_97\n        /* \"#utility.yul\":426:427   */\n      0x00\n        /* \"#utility.yul\":415:424   */\n      dup4\n        /* \"#utility.yul\":411:428   */\n      add\n        /* \"#utility.yul\":402:408   */\n      dup5\n        /* \"#utility.yul\":358:429   */\n      tag_47\n      jump\t// in\n    tag_97:\n        /* \"#utility.yul\":214:436   */\n      swap3\n      swap2\n      pop\n      pop\n      jump\t// out\n        /* \"#utility.yul\":442:517   */\n    tag_48:\n        /* \"#utility.yul\":475:481   */\n      0x00\n        /* \"#utility.yul\":508:510   */\n      0x40\n        /* \"#utility.yul\":502:511   */\n      mload\n        /* \"#utility.yul\":492:511   */\n      swap1\n      pop\n        /* \"#utility.yul\":442:517   */\n      swap1\n      jump\t// out\n        /* \"#utility.yul\":523:640   */\n    tag_49:\n        /* \"#utility.yul\":632:633   */\n      0x00\n        /* \"#utility.yul\":629:630   */\n      dup1\n        /* \"#utility.yul\":622:634   */\n      revert\n        /* \"#utility.yul\":646:763   */\n    tag_50:\n        /* \"#utility.yul\":755:756   */\n      0x00\n        /* \"#utility.yul\":752:753   */\n      dup1\n        /* \"#utility.yul\":745:757   */\n      revert\n        /* \"#utility.yul\":769:891   */\n    tag_51:\n        /* \"#utility.yul\":842:866   */\n      tag_102\n        /* \"#utility.yul\":860:865   */\n      dup2\n        /* \"#utility.yul\":842:866   */\n      tag_46\n      jump\t// in\n    tag_102:\n        /* \"#utility.yul\":835:840   */\n      dup2\n        /* \"#utility.yul\":832:867   */\n      eq\n        /* \"#utility.yul\":822:885   */\n      tag_103\n      jumpi\n        /* \"#utility.yul\":881:882   */\n      0x00\n        /* \"#utility.yul\":878:879   */\n      dup1\n        /* \"#utility.yul\":871:883   */\n      revert\n        /* \"#utility.yul\":822:885   */\n    tag_103:\n        /* \"#utility.yul\":769:891   */\n      pop\n      jump\t// out\n        /* \"#utility.yul\":897:1036   */\n    tag_52:\n        /* \"#utility.yul\":943:948   */\n      0x00\n        /* \"#utility.yul\":981:987   */\n      dup2\n        /* \"#utility.yul\":968:988   */\n      calldataload\n        /* \"#utility.yul\":959:988   */\n      swap1\n      pop\n        /* \"#utility.yul\":997:1030   */\n      tag_105\n        /* \"#utility.yul\":1024:1029   */\n      dup2\n        /* \"#utility.yul\":997:1030   */\n      tag_51\n      jump\t// in\n    tag_105:\n        /* \"#utility.yul\":897:1036   */\n      swap3\n      swap2\n      pop\n      pop\n      jump\t// out\n        /* \"#utility.yul\":1042:1371   */\n    tag_13:\n        /* \"#utility.yul\":1101:1107   */\n      0x00\n        /* \"#utility.yul\":1150:1152   */\n      0x20\n        /* \"#utility.yul\":1138:1147   */\n      dup3\n        /* \"#utility.yul\":1129:1136   */\n      dup5\n        /* \"#utility.yul\":1125:1148   */\n      sub\n        /* \"#utility.yul\":1121:1153   */\n      slt\n        /* \"#utility.yul\":1118:1237   */\n      iszero\n      tag_107\n      jumpi\n        /* \"#utility.yul\":1156:1235   */\n      tag_108\n      tag_49\n      jump\t// in\n    tag_108:\n        /* \"#utility.yul\":1118:1237   */\n    tag_107:\n        /* \"#utility.yul\":1276:1277   */\n      0x00\n        /* \"#utility.yul\":1301:1354   */\n      tag_109\n        /* \"#utility.yul\":1346:1353   */\n      dup5\n        /* \"#utility.yul\":1337:1343   */\n      dup3\n        /* \"#utility.yul\":1326:1335   */\n      dup6\n        /* \"#utility.yul\":1322:1344   */\n      add\n        /* \"#utility.yul\":1301:1354   */\n      tag_52\n      jump\t// in\n    tag_109:\n        /* \"#utility.yul\":1291:1354   */\n      swap2\n      pop\n        /* \"#utility.yul\":1247:1364   */\n      pop\n        /* \"#utility.yul\":1042:1371   */\n      swap3\n      swap2\n      pop\n      pop\n      jump\t// out\n        /* \"#utility.yul\":1377:1503   */\n    tag_53:\n        /* \"#utility.yul\":1414:1421   */\n      0x00\n        /* \"#utility.yul\":1454:1496   */\n      0xffffffffffffffffffffffffffffffffffffffff\n        /* \"#utility.yul\":1447:1452   */\n      dup3\n        /* \"#utility.yul\":1443:1497   */\n      and\n        /* \"#utility.yul\":1432:1497   */\n      swap1\n      pop\n        /* \"#utility.yul\":1377:1503   */\n      swap2\n      swap1\n      pop\n      jump\t// out\n        /* \"#utility.yul\":1509:1605   */\n    tag_54:\n        /* \"#utility.yul\":1546:1553   */\n      0x00\n        /* \"#utility.yul\":1575:1599   */\n      tag_112\n        /* \"#utility.yul\":1593:1598   */\n      dup3\n        /* \"#utility.yul\":1575:1599   */\n      tag_53\n      jump\t// in\n    tag_112:\n        /* \"#utility.yul\":1564:1599   */\n      swap1\n      pop\n        /* \"#utility.yul\":1509:1605   */\n      swap2\n      swap1\n      pop\n      jump\t// out\n        /* \"#utility.yul\":1611:1729   */\n    tag_55:\n        /* \"#utility.yul\":1698:1722   */\n      tag_114\n        /* \"#utility.yul\":1716:1721   */\n      dup2\n        /* \"#utility.yul\":1698:1722   */\n      tag_54\n      jump\t// in\n    tag_114:\n        /* \"#utility.yul\":1693:1696   */\n      dup3\n        /* \"#utility.yul\":1686:1723   */\n      mstore\n        /* \"#utility.yul\":1611:1729   */\n      pop\n      pop\n      jump\t// out\n        /* \"#utility.yul\":1735:1834   */\n    tag_56:\n        /* \"#utility.yul\":1787:1793   */\n      0x00\n        /* \"#utility.yul\":1821:1826   */\n      dup2\n        /* \"#utility.yul\":1815:1827   */\n      mload\n        /* \"#utility.yul\":1805:1827   */\n      swap1\n      pop\n        /* \"#utility.yul\":1735:1834   */\n      swap2\n      swap1\n      pop\n      jump\t// out\n        /* \"#utility.yul\":1840:2009   */\n    tag_57:\n        /* \"#utility.yul\":1924:1935   */\n      0x00\n        /* \"#utility.yul\":1958:1964   */\n      dup3\n        /* \"#utility.yul\":1953:1956   */\n      dup3\n        /* \"#utility.yul\":1946:1965   */\n      mstore\n        /* \"#utility.yul\":1998:2002   */\n      0x20\n        /* \"#utility.yul\":1993:1996   */\n      dup3\n        /* \"#utility.yul\":1989:2003   */\n      add\n        /* \"#utility.yul\":1974:2003   */\n      swap1\n      pop\n        /* \"#utility.yul\":1840:2009   */\n      swap3\n      swap2\n      pop\n      pop\n      jump\t// out\n        /* \"#utility.yul\":2015:2154   */\n    tag_58:\n        /* \"#utility.yul\":2104:2110   */\n      dup3\n        /* \"#utility.yul\":2099:2102   */\n      dup2\n        /* \"#utility.yul\":2094:2097   */\n      dup4\n        /* \"#utility.yul\":2088:2111   */\n      mcopy\n        /* \"#utility.yul\":2145:2146   */\n      0x00\n        /* \"#utility.yul\":2136:2142   */\n      dup4\n        /* \"#utility.yul\":2131:2134   */\n      dup4\n        /* \"#utility.yul\":2127:2143   */\n      add\n        /* \"#utility.yul\":2120:2147   */\n      mstore\n        /* \"#utility.yul\":2015:2154   */\n      pop\n      pop\n      pop\n      jump\t// out\n        /* \"#utility.yul\":2160:2262   */\n    tag_59:\n        /* \"#utility.yul\":2201:2207   */\n      0x00\n        /* \"#utility.yul\":2252:2254   */\n      0x1f\n        /* \"#utility.yul\":2248:2255   */\n      not\n        /* \"#utility.yul\":2243:2245   */\n      0x1f\n        /* \"#utility.yul\":2236:2241   */\n      dup4\n        /* \"#utility.yul\":2232:2246   */\n      add\n        /* \"#utility.yul\":2228:2256   */\n      and\n        /* \"#utility.yul\":2218:2256   */\n      swap1\n      pop\n        /* \"#utility.yul\":2160:2262   */\n      swap2\n      swap1\n      pop\n      jump\t// out\n        /* \"#utility.yul\":2268:2645   */\n    tag_60:\n        /* \"#utility.yul\":2356:2359   */\n      0x00\n        /* \"#utility.yul\":2384:2423   */\n      tag_120\n        /* \"#utility.yul\":2417:2422   */\n      dup3\n        /* \"#utility.yul\":2384:2423   */\n      tag_56\n      jump\t// in\n    tag_120:\n        /* \"#utility.yul\":2439:2510   */\n      tag_121\n        /* \"#utility.yul\":2503:2509   */\n      dup2\n        /* \"#utility.yul\":2498:2501   */\n      dup6\n        /* \"#utility.yul\":2439:2510   */\n      tag_57\n      jump\t// in\n    tag_121:\n        /* \"#utility.yul\":2432:2510   */\n      swap4\n      pop\n        /* \"#utility.yul\":2519:2584   */\n      tag_122\n        /* \"#utility.yul\":2577:2583   */\n      dup2\n        /* \"#utility.yul\":2572:2575   */\n      dup6\n        /* \"#utility.yul\":2565:2569   */\n      0x20\n        /* \"#utility.yul\":2558:2563   */\n      dup7\n        /* \"#utility.yul\":2554:2570   */\n      add\n        /* \"#utility.yul\":2519:2584   */\n      tag_58\n      jump\t// in\n    tag_122:\n        /* \"#utility.yul\":2609:2638   */\n      tag_123\n        /* \"#utility.yul\":2631:2637   */\n      dup2\n        /* \"#utility.yul\":2609:2638   */\n      tag_59\n      jump\t// in\n    tag_123:\n        /* \"#utility.yul\":2604:2607   */\n      dup5\n        /* \"#utility.yul\":2600:2639   */\n      add\n        /* \"#utility.yul\":2593:2639   */\n      swap2\n      pop\n        /* \"#utility.yul\":2360:2645   */\n      pop\n        /* \"#utility.yul\":2268:2645   */\n      swap3\n      swap2\n      pop\n      pop\n      jump\t// out\n        /* \"#utility.yul\":2651:3406   */\n    tag_16:\n        /* \"#utility.yul\":2876:2880   */\n      0x00\n        /* \"#utility.yul\":2914:2917   */\n      0xa0\n        /* \"#utility.yul\":2903:2912   */\n      dup3\n        /* \"#utility.yul\":2899:2918   */\n      add\n        /* \"#utility.yul\":2891:2918   */\n      swap1\n      pop\n        /* \"#utility.yul\":2928:2999   */\n      tag_125\n        /* \"#utility.yul\":2996:2997   */\n      0x00\n        /* \"#utility.yul\":2985:2994   */\n      dup4\n        /* \"#utility.yul\":2981:2998   */\n      add\n        /* \"#utility.yul\":2972:2978   */\n      dup9\n        /* \"#utility.yul\":2928:2999   */\n      tag_47\n      jump\t// in\n    tag_125:\n        /* \"#utility.yul\":3009:3081   */\n      tag_126\n        /* \"#utility.yul\":3077:3079   */\n      0x20\n        /* \"#utility.yul\":3066:3075   */\n      dup4\n        /* \"#utility.yul\":3062:3080   */\n      add\n        /* \"#utility.yul\":3053:3059   */\n      dup8\n        /* \"#utility.yul\":3009:3081   */\n      tag_55\n      jump\t// in\n    tag_126:\n        /* \"#utility.yul\":3128:3137   */\n      dup2\n        /* \"#utility.yul\":3122:3126   */\n      dup2\n        /* \"#utility.yul\":3118:3138   */\n      sub\n        /* \"#utility.yul\":3113:3115   */\n      0x40\n        /* \"#utility.yul\":3102:3111   */\n      dup4\n        /* \"#utility.yul\":3098:3116   */\n      add\n        /* \"#utility.yul\":3091:3139   */\n      mstore\n        /* \"#utility.yul\":3156:3234   */\n      tag_127\n        /* \"#utility.yul\":3229:3233   */\n      dup2\n        /* \"#utility.yul\":3220:3226   */\n      dup7\n        /* \"#utility.yul\":3156:3234   */\n      tag_60\n      jump\t// in\n    tag_127:\n        /* \"#utility.yul\":3148:3234   */\n      swap1\n      pop\n        /* \"#utility.yul\":3244:3316   */\n      tag_128\n        /* \"#utility.yul\":3312:3314   */\n      0x60\n        /* \"#utility.yul\":3301:3310   */\n      dup4\n        /* \"#utility.yul\":3297:3315   */\n      add\n        /* \"#utility.yul\":3288:3294   */\n      dup6\n        /* \"#utility.yul\":3244:3316   */\n      tag_47\n      jump\t// in\n    tag_128:\n        /* \"#utility.yul\":3326:3399   */\n      tag_129\n        /* \"#utility.yul\":3394:3397   */\n      0x80\n        /* \"#utility.yul\":3383:3392   */\n      dup4\n        /* \"#utility.yul\":3379:3398   */\n      add\n        /* \"#utility.yul\":3370:3376   */\n      dup5\n        /* \"#utility.yul\":3326:3399   */\n      tag_47\n      jump\t// in\n    tag_129:\n        /* \"#utility.yul\":2651:3406   */\n      swap7\n      swap6\n      pop\n      pop\n      pop\n      pop\n      pop\n      pop\n      jump\t// out\n        /* \"#utility.yul\":3412:3529   */\n    tag_61:\n        /* \"#utility.yul\":3521:3522   */\n      0x00\n        /* \"#utility.yul\":3518:3519   */\n      dup1\n        /* \"#utility.yul\":3511:3523   */\n      revert\n        /* \"#utility.yul\":3535:3652   */\n    tag_62:\n        /* \"#utility.yul\":3644:3645   */\n      0x00\n        /* \"#utility.yul\":3641:3642   */\n      dup1\n        /* \"#utility.yul\":3634:3646   */\n      revert\n        /* \"#utility.yul\":3658:3838   */\n    tag_63:\n        /* \"#utility.yul\":3706:3783   */\n      0x4e487b7100000000000000000000000000000000000000000000000000000000\n        /* \"#utility.yul\":3703:3704   */\n      0x00\n        /* \"#utility.yul\":3696:3784   */\n      mstore\n        /* \"#utility.yul\":3803:3807   */\n      0x41\n        /* \"#utility.yul\":3800:3801   */\n      0x04\n        /* \"#utility.yul\":3793:3808   */\n      mstore\n        /* \"#utility.yul\":3827:3831   */\n      0x24\n        /* \"#utility.yul\":3824:3825   */\n      0x00\n        /* \"#utility.yul\":3817:3832   */\n      revert\n        /* \"#utility.yul\":3844:4125   */\n    tag_64:\n        /* \"#utility.yul\":3927:3954   */\n      tag_134\n        /* \"#utility.yul\":3949:3953   */\n      dup3\n        /* \"#utility.yul\":3927:3954   */\n      tag_59\n      jump\t// in\n    tag_134:\n        /* \"#utility.yul\":3919:3925   */\n      dup2\n        /* \"#utility.yul\":3915:3955   */\n      add\n        /* \"#utility.yul\":4057:4063   */\n      dup2\n        /* \"#utility.yul\":4045:4055   */\n      dup2\n        /* \"#utility.yul\":4042:4064   */\n      lt\n        /* \"#utility.yul\":4021:4039   */\n      0xffffffffffffffff\n        /* \"#utility.yul\":4009:4019   */\n      dup3\n        /* \"#utility.yul\":4006:4040   */\n      gt\n        /* \"#utility.yul\":4003:4065   */\n      or\n        /* \"#utility.yul\":4000:4088   */\n      iszero\n      tag_135\n      jumpi\n        /* \"#utility.yul\":4068:4086   */\n      tag_136\n      tag_63\n      jump\t// in\n    tag_136:\n        /* \"#utility.yul\":4000:4088   */\n    tag_135:\n        /* \"#utility.yul\":4108:4118   */\n      dup1\n        /* \"#utility.yul\":4104:4106   */\n      0x40\n        /* \"#utility.yul\":4097:4119   */\n      mstore\n        /* \"#utility.yul\":3887:4125   */\n      pop\n        /* \"#utility.yul\":3844:4125   */\n      pop\n      pop\n      jump\t// out\n        /* \"#utility.yul\":4131:4260   */\n    tag_65:\n        /* \"#utility.yul\":4165:4171   */\n      0x00\n        /* \"#utility.yul\":4192:4212   */\n      tag_138\n      tag_48\n      jump\t// in\n    tag_138:\n        /* \"#utility.yul\":4182:4212   */\n      swap1\n      pop\n        /* \"#utility.yul\":4221:4254   */\n      tag_139\n        /* \"#utility.yul\":4249:4253   */\n      dup3\n        /* \"#utility.yul\":4241:4247   */\n      dup3\n        /* \"#utility.yul\":4221:4254   */\n      tag_64\n      jump\t// in\n    tag_139:\n        /* \"#utility.yul\":4131:4260   */\n      swap2\n      swap1\n      pop\n      jump\t// out\n        /* \"#utility.yul\":4266:4574   */\n    tag_66:\n        /* \"#utility.yul\":4328:4332   */\n      0x00\n        /* \"#utility.yul\":4418:4436   */\n      0xffffffffffffffff\n        /* \"#utility.yul\":4410:4416   */\n      dup3\n        /* \"#utility.yul\":4407:4437   */\n      gt\n        /* \"#utility.yul\":4404:4460   */\n      iszero\n      tag_141\n      jumpi\n        /* \"#utility.yul\":4440:4458   */\n      tag_142\n      tag_63\n      jump\t// in\n    tag_142:\n        /* \"#utility.yul\":4404:4460   */\n    tag_141:\n        /* \"#utility.yul\":4478:4507   */\n      tag_143\n        /* \"#utility.yul\":4500:4506   */\n      dup3\n        /* \"#utility.yul\":4478:4507   */\n      tag_59\n      jump\t// in\n    tag_143:\n        /* \"#utility.yul\":4470:4507   */\n      swap1\n      pop\n        /* \"#utility.yul\":4562:4566   */\n      0x20\n        /* \"#utility.yul\":4556:4560   */\n      dup2\n        /* \"#utility.yul\":4552:4567   */\n      add\n        /* \"#utility.yul\":4544:4567   */\n      swap1\n      pop\n        /* \"#utility.yul\":4266:4574   */\n      swap2\n      swap1\n      pop\n      jump\t// out\n        /* \"#utility.yul\":4580:4728   */\n    tag_67:\n        /* \"#utility.yul\":4678:4684   */\n      dup3\n        /* \"#utility.yul\":4673:4676   */\n      dup2\n        /* \"#utility.yul\":4668:4671   */\n      dup4\n        /* \"#utility.yul\":4655:4685   */\n      calldatacopy\n        /* \"#utility.yul\":4719:4720   */\n      0x00\n        /* \"#utility.yul\":4710:4716   */\n      dup4\n        /* \"#utility.yul\":4705:4708   */\n      dup4\n        /* \"#utility.yul\":4701:4717   */\n      add\n        /* \"#utility.yul\":4694:4721   */\n      mstore\n        /* \"#utility.yul\":4580:4728   */\n      pop\n      pop\n      pop\n      jump\t// out\n        /* \"#utility.yul\":4734:5159   */\n    tag_68:\n        /* \"#utility.yul\":4812:4817   */\n      0x00\n        /* \"#utility.yul\":4837:4903   */\n      tag_146\n        /* \"#utility.yul\":4853:4902   */\n      tag_147\n        /* \"#utility.yul\":4895:4901   */\n      dup5\n        /* \"#utility.yul\":4853:4902   */\n      tag_66\n      jump\t// in\n    tag_147:\n        /* \"#utility.yul\":4837:4903   */\n      tag_65\n      jump\t// in\n    tag_146:\n        /* \"#utility.yul\":4828:4903   */\n      swap1\n      pop\n        /* \"#utility.yul\":4926:4932   */\n      dup3\n        /* \"#utility.yul\":4919:4924   */\n      dup2\n        /* \"#utility.yul\":4912:4933   */\n      mstore\n        /* \"#utility.yul\":4964:4968   */\n      0x20\n        /* \"#utility.yul\":4957:4962   */\n      dup2\n        /* \"#utility.yul\":4953:4969   */\n      add\n        /* \"#utility.yul\":5002:5005   */\n      dup5\n        /* \"#utility.yul\":4993:4999   */\n      dup5\n        /* \"#utility.yul\":4988:4991   */\n      dup5\n        /* \"#utility.yul\":4984:5000   */\n      add\n        /* \"#utility.yul\":4981:5006   */\n      gt\n        /* \"#utility.yul\":4978:5090   */\n      iszero\n      tag_148\n      jumpi\n        /* \"#utility.yul\":5009:5088   */\n      tag_149\n      tag_62\n      jump\t// in\n    tag_149:\n        /* \"#utility.yul\":4978:5090   */\n    tag_148:\n        /* \"#utility.yul\":5099:5153   */\n      tag_150\n        /* \"#utility.yul\":5146:5152   */\n      dup5\n        /* \"#utility.yul\":5141:5144   */\n      dup3\n        /* \"#utility.yul\":5136:5139   */\n      dup6\n        /* \"#utility.yul\":5099:5153   */\n      tag_67\n      jump\t// in\n    tag_150:\n        /* \"#utility.yul\":4818:5159   */\n      pop\n        /* \"#utility.yul\":4734:5159   */\n      swap4\n      swap3\n      pop\n      pop\n      pop\n      jump\t// out\n        /* \"#utility.yul\":5179:5519   */\n    tag_69:\n        /* \"#utility.yul\":5235:5240   */\n      0x00\n        /* \"#utility.yul\":5284:5287   */\n      dup3\n        /* \"#utility.yul\":5277:5281   */\n      0x1f\n        /* \"#utility.yul\":5269:5275   */\n      dup4\n        /* \"#utility.yul\":5265:5282   */\n      add\n        /* \"#utility.yul\":5261:5288   */\n      slt\n        /* \"#utility.yul\":5251:5373   */\n      tag_152\n      jumpi\n        /* \"#utility.yul\":5292:5371   */\n      tag_153\n      tag_61\n      jump\t// in\n    tag_153:\n        /* \"#utility.yul\":5251:5373   */\n    tag_152:\n        /* \"#utility.yul\":5409:5415   */\n      dup2\n        /* \"#utility.yul\":5396:5416   */\n      calldataload\n        /* \"#utility.yul\":5434:5513   */\n      tag_154\n        /* \"#utility.yul\":5509:5512   */\n      dup5\n        /* \"#utility.yul\":5501:5507   */\n      dup3\n        /* \"#utility.yul\":5494:5498   */\n      0x20\n        /* \"#utility.yul\":5486:5492   */\n      dup7\n        /* \"#utility.yul\":5482:5499   */\n      add\n        /* \"#utility.yul\":5434:5513   */\n      tag_68\n      jump\t// in\n    tag_154:\n        /* \"#utility.yul\":5425:5513   */\n      swap2\n      pop\n        /* \"#utility.yul\":5241:5519   */\n      pop\n        /* \"#utility.yul\":5179:5519   */\n      swap3\n      swap2\n      pop\n      pop\n      jump\t// out\n        /* \"#utility.yul\":5525:6324   */\n    tag_19:\n        /* \"#utility.yul\":5612:5618   */\n      0x00\n        /* \"#utility.yul\":5620:5626   */\n      dup1\n        /* \"#utility.yul\":5628:5634   */\n      0x00\n        /* \"#utility.yul\":5677:5679   */\n      0x60\n        /* \"#utility.yul\":5665:5674   */\n      dup5\n        /* \"#utility.yul\":5656:5663   */\n      dup7\n        /* \"#utility.yul\":5652:5675   */\n      sub\n        /* \"#utility.yul\":5648:5680   */\n      slt\n        /* \"#utility.yul\":5645:5764   */\n      iszero\n      tag_156\n      jumpi\n        /* \"#utility.yul\":5683:5762   */\n      tag_157\n      tag_49\n      jump\t// in\n    tag_157:\n        /* \"#utility.yul\":5645:5764   */\n    tag_156:\n        /* \"#utility.yul\":5831:5832   */\n      0x00\n        /* \"#utility.yul\":5820:5829   */\n      dup5\n        /* \"#utility.yul\":5816:5833   */\n      add\n        /* \"#utility.yul\":5803:5834   */\n      calldataload\n        /* \"#utility.yul\":5861:5879   */\n      0xffffffffffffffff\n        /* \"#utility.yul\":5853:5859   */\n      dup2\n        /* \"#utility.yul\":5850:5880   */\n      gt\n        /* \"#utility.yul\":5847:5964   */\n      iszero\n      tag_158\n      jumpi\n        /* \"#utility.yul\":5883:5962   */\n      tag_159\n      tag_50\n      jump\t// in\n    tag_159:\n        /* \"#utility.yul\":5847:5964   */\n    tag_158:\n        /* \"#utility.yul\":5988:6051   */\n      tag_160\n        /* \"#utility.yul\":6043:6050   */\n      dup7\n        /* \"#utility.yul\":6034:6040   */\n      dup3\n        /* \"#utility.yul\":6023:6032   */\n      dup8\n        /* \"#utility.yul\":6019:6041   */\n      add\n        /* \"#utility.yul\":5988:6051   */\n      tag_69\n      jump\t// in\n    tag_160:\n        /* \"#utility.yul\":5978:6051   */\n      swap4\n      pop\n        /* \"#utility.yul\":5774:6061   */\n      pop\n        /* \"#utility.yul\":6100:6102   */\n      0x20\n        /* \"#utility.yul\":6126:6179   */\n      tag_161\n        /* \"#utility.yul\":6171:6178   */\n      dup7\n        /* \"#utility.yul\":6162:6168   */\n      dup3\n        /* \"#utility.yul\":6151:6160   */\n      dup8\n        /* \"#utility.yul\":6147:6169   */\n      add\n        /* \"#utility.yul\":6126:6179   */\n      tag_52\n      jump\t// in\n    tag_161:\n        /* \"#utility.yul\":6116:6179   */\n      swap3\n      pop\n        /* \"#utility.yul\":6071:6189   */\n      pop\n        /* \"#utility.yul\":6228:6230   */\n      0x40\n        /* \"#utility.yul\":6254:6307   */\n      tag_162\n        /* \"#utility.yul\":6299:6306   */\n      dup7\n        /* \"#utility.yul\":6290:6296   */\n      dup3\n        /* \"#utility.yul\":6279:6288   */\n      dup8\n        /* \"#utility.yul\":6275:6297   */\n      add\n        /* \"#utility.yul\":6254:6307   */\n      tag_52\n      jump\t// in\n    tag_162:\n        /* \"#utility.yul\":6244:6307   */\n      swap2\n      pop\n        /* \"#utility.yul\":6199:6317   */\n      pop\n        /* \"#utility.yul\":5525:6324   */\n      swap3\n      pop\n      swap3\n      pop\n      swap3\n      jump\t// out\n        /* \"#utility.yul\":6330:6438   */\n    tag_70:\n        /* \"#utility.yul\":6407:6431   */\n      tag_164\n        /* \"#utility.yul\":6425:6430   */\n      dup2\n        /* \"#utility.yul\":6407:6431   */\n      tag_46\n      jump\t// in\n    tag_164:\n        /* \"#utility.yul\":6402:6405   */\n      dup3\n        /* \"#utility.yul\":6395:6432   */\n      mstore\n        /* \"#utility.yul\":6330:6438   */\n      pop\n      pop\n      jump\t// out\n        /* \"#utility.yul\":6444:6552   */\n    tag_71:\n        /* \"#utility.yul\":6521:6545   */\n      tag_166\n        /* \"#utility.yul\":6539:6544   */\n      dup2\n        /* \"#utility.yul\":6521:6545   */\n      tag_54\n      jump\t// in\n    tag_166:\n        /* \"#utility.yul\":6516:6519   */\n      dup3\n        /* \"#utility.yul\":6509:6546   */\n      mstore\n        /* \"#utility.yul\":6444:6552   */\n      pop\n      pop\n      jump\t// out\n        /* \"#utility.yul\":6558:6717   */\n    tag_72:\n        /* \"#utility.yul\":6632:6643   */\n      0x00\n        /* \"#utility.yul\":6666:6672   */\n      dup3\n        /* \"#utility.yul\":6661:6664   */\n      dup3\n        /* \"#utility.yul\":6654:6673   */\n      mstore\n        /* \"#utility.yul\":6706:6710   */\n      0x20\n        /* \"#utility.yul\":6701:6704   */\n      dup3\n        /* \"#utility.yul\":6697:6711   */\n      add\n        /* \"#utility.yul\":6682:6711   */\n      swap1\n      pop\n        /* \"#utility.yul\":6558:6717   */\n      swap3\n      swap2\n      pop\n      pop\n      jump\t// out\n        /* \"#utility.yul\":6723:7080   */\n    tag_73:\n        /* \"#utility.yul\":6801:6804   */\n      0x00\n        /* \"#utility.yul\":6829:6868   */\n      tag_169\n        /* \"#utility.yul\":6862:6867   */\n      dup3\n        /* \"#utility.yul\":6829:6868   */\n      tag_56\n      jump\t// in\n    tag_169:\n        /* \"#utility.yul\":6884:6945   */\n      tag_170\n        /* \"#utility.yul\":6938:6944   */\n      dup2\n        /* \"#utility.yul\":6933:6936   */\n      dup6\n        /* \"#utility.yul\":6884:6945   */\n      tag_72\n      jump\t// in\n    tag_170:\n        /* \"#utility.yul\":6877:6945   */\n      swap4\n      pop\n        /* \"#utility.yul\":6954:7019   */\n      tag_171\n        /* \"#utility.yul\":7012:7018   */\n      dup2\n        /* \"#utility.yul\":7007:7010   */\n      dup6\n        /* \"#utility.yul\":7000:7004   */\n      0x20\n        /* \"#utility.yul\":6993:6998   */\n      dup7\n        /* \"#utility.yul\":6989:7005   */\n      add\n        /* \"#utility.yul\":6954:7019   */\n      tag_58\n      jump\t// in\n    tag_171:\n        /* \"#utility.yul\":7044:7073   */\n      tag_172\n        /* \"#utility.yul\":7066:7072   */\n      dup2\n        /* \"#utility.yul\":7044:7073   */\n      tag_59\n      jump\t// in\n    tag_172:\n        /* \"#utility.yul\":7039:7042   */\n      dup5\n        /* \"#utility.yul\":7035:7074   */\n      add\n        /* \"#utility.yul\":7028:7074   */\n      swap2\n      pop\n        /* \"#utility.yul\":6805:7080   */\n      pop\n        /* \"#utility.yul\":6723:7080   */\n      swap3\n      swap2\n      pop\n      pop\n      jump\t// out\n        /* \"#utility.yul\":7160:8310   */\n    tag_74:\n        /* \"#utility.yul\":7277:7280   */\n      0x00\n        /* \"#utility.yul\":7313:7317   */\n      0xa0\n        /* \"#utility.yul\":7308:7311   */\n      dup4\n        /* \"#utility.yul\":7304:7318   */\n      add\n        /* \"#utility.yul\":7398:7402   */\n      0x00\n        /* \"#utility.yul\":7391:7396   */\n      dup4\n        /* \"#utility.yul\":7387:7403   */\n      add\n        /* \"#utility.yul\":7381:7404   */\n      mload\n        /* \"#utility.yul\":7417:7480   */\n      tag_174\n        /* \"#utility.yul\":7474:7478   */\n      0x00\n        /* \"#utility.yul\":7469:7472   */\n      dup7\n        /* \"#utility.yul\":7465:7479   */\n      add\n        /* \"#utility.yul\":7451:7463   */\n      dup3\n        /* \"#utility.yul\":7417:7480   */\n      tag_70\n      jump\t// in\n    tag_174:\n        /* \"#utility.yul\":7328:7490   */\n      pop\n        /* \"#utility.yul\":7573:7577   */\n      0x20\n        /* \"#utility.yul\":7566:7571   */\n      dup4\n        /* \"#utility.yul\":7562:7578   */\n      add\n        /* \"#utility.yul\":7556:7579   */\n      mload\n        /* \"#utility.yul\":7592:7655   */\n      tag_175\n        /* \"#utility.yul\":7649:7653   */\n      0x20\n        /* \"#utility.yul\":7644:7647   */\n      dup7\n        /* \"#utility.yul\":7640:7654   */\n      add\n        /* \"#utility.yul\":7626:7638   */\n      dup3\n        /* \"#utility.yul\":7592:7655   */\n      tag_71\n      jump\t// in\n    tag_175:\n        /* \"#utility.yul\":7500:7665   */\n      pop\n        /* \"#utility.yul\":7754:7758   */\n      0x40\n        /* \"#utility.yul\":7747:7752   */\n      dup4\n        /* \"#utility.yul\":7743:7759   */\n      add\n        /* \"#utility.yul\":7737:7760   */\n      mload\n        /* \"#utility.yul\":7807:7810   */\n      dup5\n        /* \"#utility.yul\":7801:7805   */\n      dup3\n        /* \"#utility.yul\":7797:7811   */\n      sub\n        /* \"#utility.yul\":7790:7794   */\n      0x40\n        /* \"#utility.yul\":7785:7788   */\n      dup7\n        /* \"#utility.yul\":7781:7795   */\n      add\n        /* \"#utility.yul\":7774:7812   */\n      mstore\n        /* \"#utility.yul\":7833:7906   */\n      tag_176\n        /* \"#utility.yul\":7901:7905   */\n      dup3\n        /* \"#utility.yul\":7887:7899   */\n      dup3\n        /* \"#utility.yul\":7833:7906   */\n      tag_73\n      jump\t// in\n    tag_176:\n        /* \"#utility.yul\":7825:7906   */\n      swap2\n      pop\n        /* \"#utility.yul\":7675:7917   */\n      pop\n        /* \"#utility.yul\":8007:8011   */\n      0x60\n        /* \"#utility.yul\":8000:8005   */\n      dup4\n        /* \"#utility.yul\":7996:8012   */\n      add\n        /* \"#utility.yul\":7990:8013   */\n      mload\n        /* \"#utility.yul\":8026:8089   */\n      tag_177\n        /* \"#utility.yul\":8083:8087   */\n      0x60\n        /* \"#utility.yul\":8078:8081   */\n      dup7\n        /* \"#utility.yul\":8074:8088   */\n      add\n        /* \"#utility.yul\":8060:8072   */\n      dup3\n        /* \"#utility.yul\":8026:8089   */\n      tag_70\n      jump\t// in\n    tag_177:\n        /* \"#utility.yul\":7927:8099   */\n      pop\n        /* \"#utility.yul\":8191:8195   */\n      0x80\n        /* \"#utility.yul\":8184:8189   */\n      dup4\n        /* \"#utility.yul\":8180:8196   */\n      add\n        /* \"#utility.yul\":8174:8197   */\n      mload\n        /* \"#utility.yul\":8210:8273   */\n      tag_178\n        /* \"#utility.yul\":8267:8271   */\n      0x80\n        /* \"#utility.yul\":8262:8265   */\n      dup7\n        /* \"#utility.yul\":8258:8272   */\n      add\n        /* \"#utility.yul\":8244:8256   */\n      dup3\n        /* \"#utility.yul\":8210:8273   */\n      tag_70\n      jump\t// in\n    tag_178:\n        /* \"#utility.yul\":8109:8283   */\n      pop\n        /* \"#utility.yul\":8300:8304   */\n      dup1\n        /* \"#utility.yul\":8293:8304   */\n      swap2\n      pop\n        /* \"#utility.yul\":7282:8310   */\n      pop\n        /* \"#utility.yul\":7160:8310   */\n      swap3\n      swap2\n      pop\n      pop\n      jump\t// out\n        /* \"#utility.yul\":8316:8685   */\n    tag_25:\n        /* \"#utility.yul\":8457:8461   */\n      0x00\n        /* \"#utility.yul\":8495:8497   */\n      0x20\n        /* \"#utility.yul\":8484:8493   */\n      dup3\n        /* \"#utility.yul\":8480:8498   */\n      add\n        /* \"#utility.yul\":8472:8498   */\n      swap1\n      pop\n        /* \"#utility.yul\":8544:8553   */\n      dup2\n        /* \"#utility.yul\":8538:8542   */\n      dup2\n        /* \"#utility.yul\":8534:8554   */\n      sub\n        /* \"#utility.yul\":8530:8531   */\n      0x00\n        /* \"#utility.yul\":8519:8528   */\n      dup4\n        /* \"#utility.yul\":8515:8532   */\n      add\n        /* \"#utility.yul\":8508:8555   */\n      mstore\n        /* \"#utility.yul\":8572:8678   */\n      tag_180\n        /* \"#utility.yul\":8673:8677   */\n      dup2\n        /* \"#utility.yul\":8664:8670   */\n      dup5\n        /* \"#utility.yul\":8572:8678   */\n      tag_74\n      jump\t// in\n    tag_180:\n        /* \"#utility.yul\":8564:8678   */\n      swap1\n      pop\n        /* \"#utility.yul\":8316:8685   */\n      swap3\n      swap2\n      pop\n      pop\n      jump\t// out\n        /* \"#utility.yul\":8691:8871   */\n    tag_75:\n        /* \"#utility.yul\":8739:8816   */\n      0x4e487b7100000000000000000000000000000000000000000000000000000000\n        /* \"#utility.yul\":8736:8737   */\n      0x00\n        /* \"#utility.yul\":8729:8817   */\n      mstore\n        /* \"#utility.yul\":8836:8840   */\n      0x22\n        /* \"#utility.yul\":8833:8834   */\n      0x04\n        /* \"#utility.yul\":8826:8841   */\n      mstore\n        /* \"#utility.yul\":8860:8864   */\n      0x24\n        /* \"#utility.yul\":8857:8858   */\n      0x00\n        /* \"#utility.yul\":8850:8865   */\n      revert\n        /* \"#utility.yul\":8877:9197   */\n    tag_27:\n        /* \"#utility.yul\":8921:8927   */\n      0x00\n        /* \"#utility.yul\":8958:8959   */\n      0x02\n        /* \"#utility.yul\":8952:8956   */\n      dup3\n        /* \"#utility.yul\":8948:8960   */\n      div\n        /* \"#utility.yul\":8938:8960   */\n      swap1\n      pop\n        /* \"#utility.yul\":9005:9006   */\n      0x01\n        /* \"#utility.yul\":8999:9003   */\n      dup3\n        /* \"#utility.yul\":8995:9007   */\n      and\n        /* \"#utility.yul\":9026:9044   */\n      dup1\n        /* \"#utility.yul\":9016:9097   */\n      tag_183\n      jumpi\n        /* \"#utility.yul\":9082:9086   */\n      0x7f\n        /* \"#utility.yul\":9074:9080   */\n      dup3\n        /* \"#utility.yul\":9070:9087   */\n      and\n        /* \"#utility.yul\":9060:9087   */\n      swap2\n      pop\n        /* \"#utility.yul\":9016:9097   */\n    tag_183:\n        /* \"#utility.yul\":9144:9146   */\n      0x20\n        /* \"#utility.yul\":9136:9142   */\n      dup3\n        /* \"#utility.yul\":9133:9147   */\n      lt\n        /* \"#utility.yul\":9113:9131   */\n      dup2\n        /* \"#utility.yul\":9110:9148   */\n      sub\n        /* \"#utility.yul\":9107:9191   */\n      tag_184\n      jumpi\n        /* \"#utility.yul\":9163:9181   */\n      tag_185\n      tag_75\n      jump\t// in\n    tag_185:\n        /* \"#utility.yul\":9107:9191   */\n    tag_184:\n        /* \"#utility.yul\":8928:9197   */\n      pop\n        /* \"#utility.yul\":8877:9197   */\n      swap2\n      swap1\n      pop\n      jump\t// out\n        /* \"#utility.yul\":9203:9383   */\n    tag_76:\n        /* \"#utility.yul\":9251:9328   */\n      0x4e487b7100000000000000000000000000000000000000000000000000000000\n        /* \"#utility.yul\":9248:9249   */\n      0x00\n        /* \"#utility.yul\":9241:9329   */\n      mstore\n        /* \"#utility.yul\":9348:9352   */\n      0x11\n        /* \"#utility.yul\":9345:9346   */\n      0x04\n        /* \"#utility.yul\":9338:9353   */\n      mstore\n        /* \"#utility.yul\":9372:9376   */\n      0x24\n        /* \"#utility.yul\":9369:9370   */\n      0x00\n        /* \"#utility.yul\":9362:9377   */\n      revert\n        /* \"#utility.yul\":9389:9622   */\n    tag_34:\n        /* \"#utility.yul\":9428:9431   */\n      0x00\n        /* \"#utility.yul\":9451:9475   */\n      tag_188\n        /* \"#utility.yul\":9469:9474   */\n      dup3\n        /* \"#utility.yul\":9451:9475   */\n      tag_46\n      jump\t// in\n    tag_188:\n        /* \"#utility.yul\":9442:9475   */\n      swap2\n      pop\n        /* \"#utility.yul\":9497:9563   */\n      0xffffffffffffffffffffffffffffffffffffffffffffffffffffffffffffffff\n        /* \"#utility.yul\":9490:9495   */\n      dup3\n        /* \"#utility.yul\":9487:9564   */\n      sub\n        /* \"#utility.yul\":9484:9587   */\n      tag_189\n      jumpi\n        /* \"#utility.yul\":9567:9585   */\n      tag_190\n      tag_76\n      jump\t// in\n    tag_190:\n        /* \"#utility.yul\":9484:9587   */\n    tag_189:\n        /* \"#utility.yul\":9614:9615   */\n      0x01\n        /* \"#utility.yul\":9607:9612   */\n      dup3\n        /* \"#utility.yul\":9603:9616   */\n      add\n        /* \"#utility.yul\":9596:9616   */\n      swap1\n      pop\n        /* \"#utility.yul\":9389:9622   */\n      swap2\n      swap1\n      pop\n      jump\t// out\n        /* \"#utility.yul\":9628:9769   */\n    tag_77:\n        /* \"#utility.yul\":9677:9681   */\n      0x00\n        /* \"#utility.yul\":9700:9703   */\n      dup2\n        /* \"#utility.yul\":9692:9703   */\n      swap1\n      pop\n        /* \"#utility.yul\":9723:9726   */\n      dup2\n        /* \"#utility.yul\":9720:9721   */\n      0x00\n        /* \"#utility.yul\":9713:9727   */\n      mstore\n        /* \"#utility.yul\":9757:9761   */\n      0x20\n        /* \"#utility.yul\":9754:9755   */\n      0x00\n        /* \"#utility.yul\":9744:9762   */\n      keccak256\n        /* \"#utility.yul\":9736:9762   */\n      swap1\n      pop\n        /* \"#utility.yul\":9628:9769   */\n      swap2\n      swap1\n      pop\n      jump\t// out\n        /* \"#utility.yul\":9775:9868   */\n    tag_78:\n        /* \"#utility.yul\":9812:9818   */\n      0x00\n        /* \"#utility.yul\":9859:9861   */\n      0x20\n        /* \"#utility.yul\":9854:9856   */\n      0x1f\n        /* \"#utility.yul\":9847:9852   */\n      dup4\n        /* \"#utility.yul\":9843:9857   */\n      add\n        /* \"#utility.yul\":9839:9862   */\n      div\n        /* \"#utility.yul\":9829:9862   */\n      swap1\n      pop\n        /* \"#utility.yul\":9775:9868   */\n      swap2\n      swap1\n      pop\n      jump\t// out\n        /* \"#utility.yul\":9874:9981   */\n    tag_79:\n        /* \"#utility.yul\":9918:9926   */\n      0x00\n        /* \"#utility.yul\":9968:9973   */\n      dup3\n        /* \"#utility.yul\":9962:9966   */\n      dup3\n        /* \"#utility.yul\":9958:9974   */\n      shl\n        /* \"#utility.yul\":9937:9974   */\n      swap1\n      pop\n        /* \"#utility.yul\":9874:9981   */\n      swap3\n      swap2\n      pop\n      pop\n      jump\t// out\n        /* \"#utility.yul\":9987:10380   */\n    tag_80:\n        /* \"#utility.yul\":10056:10062   */\n      0x00\n        /* \"#utility.yul\":10106:10107   */\n      0x08\n        /* \"#utility.yul\":10094:10104   */\n      dup4\n        /* \"#utility.yul\":10090:10108   */\n      mul\n        /* \"#utility.yul\":10129:10226   */\n      tag_195\n        /* \"#utility.yul\":10159:10225   */\n      0xffffffffffffffffffffffffffffffffffffffffffffffffffffffffffffffff\n        /* \"#utility.yul\":10148:10157   */\n      dup3\n        /* \"#utility.yul\":10129:10226   */\n      tag_79\n      jump\t// in\n    tag_195:\n        /* \"#utility.yul\":10247:10286   */\n      tag_196\n        /* \"#utility.yul\":10277:10285   */\n      dup7\n        /* \"#utility.yul\":10266:10275   */\n      dup4\n        /* \"#utility.yul\":10247:10286   */\n      tag_79\n      jump\t// in\n    tag_196:\n        /* \"#utility.yul\":10235:10286   */\n      swap6\n      pop\n        /* \"#utility.yul\":10319:10323   */\n      dup1\n        /* \"#utility.yul\":10315:10324   */\n      not\n        /* \"#utility.yul\":10308:10313   */\n      dup5\n        /* \"#utility.yul\":10304:10325   */\n      and\n        /* \"#utility.yul\":10295:10325   */\n      swap4\n      pop\n        /* \"#utility.yul\":10368:10372   */\n      dup1\n        /* \"#utility.yul\":10358:10366   */\n      dup7\n        /* \"#utility.yul\":10354:10373   */\n      and\n        /* \"#utility.yul\":10347:10352   */\n      dup5\n        /* \"#utility.yul\":10344:10374   */\n      or\n        /* \"#utility.yul\":10334:10374   */\n      swap3\n      pop\n        /* \"#utility.yul\":10063:10380   */\n      pop\n      pop\n        /* \"#utility.yul\":9987:10380   */\n      swap4\n      swap3\n      pop\n      pop\n      pop\n      jump\t// out\n        /* \"#utility.yul\":10386:10446   */\n    tag_81:\n        /* \"#utility.yul\":10414:10417   */\n      0x00\n        /* \"#utility.yul\":10435:10440   */\n      dup2\n        /* \"#utility.yul\":10428:10440   */\n      swap1\n      pop\n        /* \"#utility.yul\":10386:10446   */\n      swap2\n      swap1\n      pop\n      jump\t// out\n        /* \"#utility.yul\":10452:10594   */\n    tag_82:\n        /* \"#utility.yul\":10502:10511   */\n      0x00\n        /* \"#utility.yul\":10535:10588   */\n      tag_199\n        /* \"#utility.yul\":10553:10587   */\n      tag_200\n        /* \"#utility.yul\":10562:10586   */\n      tag_201\n        /* \"#utility.yul\":10580:10585   */\n      dup5\n        /* \"#utility.yul\":10562:10586   */\n      tag_46\n      jump\t// in\n    tag_201:\n        /* \"#utility.yul\":10553:10587   */\n      tag_81\n      jump\t// in\n    tag_200:\n        /* \"#utility.yul\":10535:10588   */\n      tag_46\n      jump\t// in\n    tag_199:\n        /* \"#utility.yul\":10522:10588   */\n      swap1\n      pop\n        /* \"#utility.yul\":10452:10594   */\n      swap2\n      swap1\n      pop\n      jump\t// out\n        /* \"#utility.yul\":10600:10675   */\n    tag_83:\n        /* \"#utility.yul\":10643:10646   */\n      0x00\n        /* \"#utility.yul\":10664:10669   */\n      dup2\n        /* \"#utility.yul\":10657:10669   */\n      swap1\n      pop\n        /* \"#utility.yul\":10600:10675   */\n      swap2\n      swap1\n      pop\n      jump\t// out\n        /* \"#utility.yul\":10681:10950   */\n    tag_84:\n        /* \"#utility.yul\":10791:10830   */\n      tag_204\n        /* \"#utility.yul\":10822:10829   */\n      dup4\n        /* \"#utility.yul\":10791:10830   */\n      tag_82\n      jump\t// in\n    tag_204:\n        /* \"#utility.yul\":10852:10943   */\n      tag_205\n        /* \"#utility.yul\":10901:10942   */\n      tag_206\n        /* \"#utility.yul\":10925:10941   */\n      dup3\n        /* \"#utility.yul\":10901:10942   */\n      tag_83\n      jump\t// in\n    tag_206:\n        /* \"#utility.yul\":10893:10899   */\n      dup5\n        /* \"#utility.yul\":10886:10890   */\n      dup5\n        /* \"#utility.yul\":10880:10891   */\n      sload\n        /* \"#utility.yul\":10852:10943   */\n      tag_80\n      jump\t// in\n    tag_205:\n        /* \"#utility.yul\":10846:10850   */\n      dup3\n        /* \"#utility.yul\":10839:10944   */\n      sstore\n        /* \"#utility.yul\":10757:10950   */\n      pop\n        /* \"#utility.yul\":10681:10950   */\n      pop\n      pop\n      pop\n      jump\t// out\n        /* \"#utility.yul\":10956:11029   */\n    tag_85:\n        /* \"#utility.yul\":11001:11004   */\n      0x00\n        /* \"#utility.yul\":10956:11029   */\n      swap1\n      jump\t// out\n        /* \"#utility.yul\":11035:11224   */\n    tag_86:\n        /* \"#utility.yul\":11112:11144   */\n      tag_209\n      tag_85\n      jump\t// in\n    tag_209:\n        /* \"#utility.yul\":11153:11218   */\n      tag_210\n        /* \"#utility.yul\":11211:11217   */\n      dup2\n        /* \"#utility.yul\":11203:11209   */\n      dup5\n        /* \"#utility.yul\":11197:11201   */\n      dup5\n        /* \"#utility.yul\":11153:11218   */\n      tag_84\n      jump\t// in\n    tag_210:\n        /* \"#utility.yul\":11088:11224   */\n      pop\n        /* \"#utility.yul\":11035:11224   */\n      pop\n      pop\n      jump\t// out\n        /* \"#utility.yul\":11230:11416   */\n    tag_87:\n        /* \"#utility.yul\":11290:11410   */\n    tag_212:\n        /* \"#utility.yul\":11307:11310   */\n      dup2\n        /* \"#utility.yul\":11300:11305   */\n      dup2\n        /* \"#utility.yul\":11297:11311   */\n      lt\n        /* \"#utility.yul\":11290:11410   */\n      iszero\n      tag_214\n      jumpi\n        /* \"#utility.yul\":11361:11400   */\n      tag_215\n        /* \"#utility.yul\":11398:11399   */\n      0x00\n        /* \"#utility.yul\":11391:11396   */\n      dup3\n        /* \"#utility.yul\":11361:11400   */\n      tag_86\n      jump\t// in\n    tag_215:\n        /* \"#utility.yul\":11334:11335   */\n      0x01\n        /* \"#utility.yul\":11327:11332   */\n      dup2\n        /* \"#utility.yul\":11323:11336   */\n      add\n        /* \"#utility.yul\":11314:11336   */\n      swap1\n      pop\n        /* \"#utility.yul\":11290:11410   */\n      jump(tag_212)\n    tag_214:\n        /* \"#utility.yul\":11230:11416   */\n      pop\n      pop\n      jump\t// out\n        /* \"#utility.yul\":11422:11965   */\n    tag_88:\n        /* \"#utility.yul\":11523:11525   */\n      0x1f\n        /* \"#utility.yul\":11518:11521   */\n      dup3\n        /* \"#utility.yul\":11515:11526   */\n      gt\n        /* \"#utility.yul\":11512:11958   */\n      iszero\n      tag_217\n      jumpi\n        /* \"#utility.yul\":11557:11595   */\n      tag_218\n        /* \"#utility.yul\":11589:11594   */\n      dup2\n        /* \"#utility.yul\":11557:11595   */\n      tag_77\n      jump\t// in\n    tag_218:\n        /* \"#utility.yul\":11641:11670   */\n      tag_219\n        /* \"#utility.yul\":11659:11669   */\n      dup5\n        /* \"#utility.yul\":11641:11670   */\n      tag_78\n      jump\t// in\n    tag_219:\n        /* \"#utility.yul\":11631:11639   */\n      dup2\n        /* \"#utility.yul\":11627:11671   */\n      add\n        /* \"#utility.yul\":11824:11826   */\n      0x20\n        /* \"#utility.yul\":11812:11822   */\n      dup6\n        /* \"#utility.yul\":11809:11827   */\n      lt\n        /* \"#utility.yul\":11806:11855   */\n      iszero\n      tag_220\n      jumpi\n        /* \"#utility.yul\":11845:11853   */\n      dup2\n        /* \"#utility.yul\":11830:11853   */\n      swap1\n      pop\n        /* \"#utility.yul\":11806:11855   */\n    tag_220:\n        /* \"#utility.yul\":11868:11948   */\n      tag_221\n        /* \"#utility.yul\":11924:11946   */\n      tag_222\n        /* \"#utility.yul\":11942:11945   */\n      dup6\n        /* \"#utility.yul\":11924:11946   */\n      tag_78\n      jump\t// in\n    tag_222:\n        /* \"#utility.yul\":11914:11922   */\n      dup4\n        /* \"#utility.yul\":11910:11947   */\n      add\n        /* \"#utility.yul\":11897:11908   */\n      dup3\n        /* \"#utility.yul\":11868:11948   */\n      tag_87\n      jump\t// in\n    tag_221:\n        /* \"#utility.yul\":11527:11958   */\n      pop\n      pop\n        /* \"#utility.yul\":11512:11958   */\n    tag_217:\n        /* \"#utility.yul\":11422:11965   */\n      pop\n      pop\n      pop\n      jump\t// out\n        /* \"#utility.yul\":11971:12088   */\n    tag_89:\n        /* \"#utility.yul\":12025:12033   */\n      0x00\n        /* \"#utility.yul\":12075:12080   */\n      dup3\n        /* \"#utility.yul\":12069:12073   */\n      dup3\n        /* \"#utility.yul\":12065:12081   */\n      shr\n        /* \"#utility.yul\":12044:12081   */\n      swap1\n      pop\n        /* \"#utility.yul\":11971:12088   */\n      swap3\n      swap2\n      pop\n      pop\n      jump\t// out\n        /* \"#utility.yul\":12094:12263   */\n    tag_90:\n        /* \"#utility.yul\":12138:12144   */\n      0x00\n        /* \"#utility.yul\":12171:12222   */\n      tag_225\n        /* \"#utility.yul\":12219:12220   */\n      0x00\n        /* \"#utility.yul\":12215:12221   */\n      not\n        /* \"#utility.yul\":12207:12212   */\n      dup5\n        /* \"#utility.yul\":12204:12205   */\n      0x08\n        /* \"#utility.yul\":12200:12213   */\n      mul\n        /* \"#utility.yul\":12171:12222   */\n      tag_89\n      jump\t// in\n    tag_225:\n        /* \"#utility.yul\":12167:12223   */\n      not\n        /* \"#utility.yul\":12252:12256   */\n      dup1\n        /* \"#utility.yul\":12246:12250   */\n      dup4\n        /* \"#utility.yul\":12242:12257   */\n      and\n        /* \"#utility.yul\":12232:12257   */\n      swap2\n      pop\n        /* \"#utility.yul\":12145:12263   */\n      pop\n        /* \"#utility.yul\":12094:12263   */\n      swap3\n      swap2\n      pop\n      pop\n      jump\t// out\n        /* \"#utility.yul\":12268:12563   */\n    tag_91:\n        /* \"#utility.yul\":12344:12348   */\n      0x00\n        /* \"#utility.yul\":12490:12519   */\n      tag_227\n        /* \"#utility.yul\":12515:12518   */\n      dup4\n        /* \"#utility.yul\":12509:12513   */\n      dup4\n        /* \"#utility.yul\":12490:12519   */\n      tag_90\n      jump\t// in\n    tag_227:\n        /* \"#utility.yul\":12482:12519   */\n      swap2\n      pop\n        /* \"#utility.yul\":12552:12555   */\n      dup3\n        /* \"#utility.yul\":12549:12550   */\n      0x02\n        /* \"#utility.yul\":12545:12556   */\n      mul\n        /* \"#utility.yul\":12539:12543   */\n      dup3\n        /* \"#utility.yul\":12536:12557   */\n      or\n        /* \"#utility.yul\":12528:12557   */\n      swap1\n      pop\n        /* \"#utility.yul\":12268:12563   */\n      swap3\n      swap2\n      pop\n      pop\n      jump\t// out\n        /* \"#utility.yul\":12568:13963   */\n    tag_36:\n        /* \"#utility.yul\":12685:12722   */\n      tag_229\n        /* \"#utility.yul\":12718:12721   */\n      dup3\n        /* \"#utility.yul\":12685:12722   */\n      tag_56\n      jump\t// in\n    tag_229:\n        /* \"#utility.yul\":12787:12805   */\n      0xffffffffffffffff\n        /* \"#utility.yul\":12779:12785   */\n      dup2\n        /* \"#utility.yul\":12776:12806   */\n      gt\n        /* \"#utility.yul\":12773:12829   */\n      iszero\n      tag_230\n      jumpi\n        /* \"#utility.yul\":12809:12827   */\n      tag_231\n      tag_63\n      jump\t// in\n    tag_231:\n        /* \"#utility.yul\":12773:12829   */\n    tag_230:\n        /* \"#utility.yul\":12853:12891   */\n      tag_232\n        /* \"#utility.yul\":12885:12889   */\n      dup3\n        /* \"#utility.yul\":12879:12890   */\n      sload\n        /* \"#utility.yul\":12853:12891   */\n      tag_27\n      jump\t// in\n    tag_232:\n        /* \"#utility.yul\":12938:13005   */\n      tag_233\n        /* \"#utility.yul\":12998:13004   */\n      dup3\n        /* \"#utility.yul\":12990:12996   */\n      dup3\n        /* \"#utility.yul\":12984:12988   */\n      dup6\n        /* \"#utility.yul\":12938:13005   */\n      tag_88\n      jump\t// in\n    tag_233:\n        /* \"#utility.yul\":13032:13033   */\n      0x00\n        /* \"#utility.yul\":13056:13060   */\n      0x20\n        /* \"#utility.yul\":13043:13060   */\n      swap1\n      pop\n        /* \"#utility.yul\":13088:13090   */\n      0x1f\n        /* \"#utility.yul\":13080:13086   */\n      dup4\n        /* \"#utility.yul\":13077:13091   */\n      gt\n        /* \"#utility.yul\":13105:13106   */\n      0x01\n        /* \"#utility.yul\":13100:13718   */\n      dup2\n      eq\n      tag_235\n      jumpi\n        /* \"#utility.yul\":13762:13763   */\n      0x00\n        /* \"#utility.yul\":13779:13785   */\n      dup5\n        /* \"#utility.yul\":13776:13853   */\n      iszero\n      tag_236\n      jumpi\n        /* \"#utility.yul\":13828:13837   */\n      dup3\n        /* \"#utility.yul\":13823:13826   */\n      dup8\n        /* \"#utility.yul\":13819:13838   */\n      add\n        /* \"#utility.yul\":13813:13839   */\n      mload\n        /* \"#utility.yul\":13804:13839   */\n      swap1\n      pop\n        /* \"#utility.yul\":13776:13853   */\n    tag_236:\n        /* \"#utility.yul\":13879:13946   */\n      tag_237\n        /* \"#utility.yul\":13939:13945   */\n      dup6\n        /* \"#utility.yul\":13932:13937   */\n      dup3\n        /* \"#utility.yul\":13879:13946   */\n      tag_91\n      jump\t// in\n    tag_237:\n        /* \"#utility.yul\":13873:13877   */\n      dup7\n        /* \"#utility.yul\":13866:13947   */\n      sstore\n        /* \"#utility.yul\":13735:13957   */\n      pop\n        /* \"#utility.yul\":13070:13957   */\n      jump(tag_234)\n        /* \"#utility.yul\":13100:13718   */\n    tag_235:\n        /* \"#utility.yul\":13152:13156   */\n      0x1f\n        /* \"#utility.yul\":13148:13157   */\n      not\n        /* \"#utility.yul\":13140:13146   */\n      dup5\n        /* \"#utility.yul\":13136:13158   */\n      and\n        /* \"#utility.yul\":13186:13223   */\n      tag_238\n        /* \"#utility.yul\":13218:13222   */\n      dup7\n        /* \"#utility.yul\":13186:13223   */\n      tag_77\n      jump\t// in\n    tag_238:\n        /* \"#utility.yul\":13245:13246   */\n      0x00\n        /* \"#utility.yul\":13259:13467   */\n    tag_239:\n        /* \"#utility.yul\":13273:13280   */\n      dup3\n        /* \"#utility.yul\":13270:13271   */\n      dup2\n        /* \"#utility.yul\":13267:13281   */\n      lt\n        /* \"#utility.yul\":13259:13467   */\n      iszero\n      tag_241\n      jumpi\n        /* \"#utility.yul\":13352:13361   */\n      dup5\n        /* \"#utility.yul\":13347:13350   */\n      dup10\n        /* \"#utility.yul\":13343:13362   */\n      add\n        /* \"#utility.yul\":13337:13363   */\n      mload\n        /* \"#utility.yul\":13329:13335   */\n      dup3\n        /* \"#utility.yul\":13322:13364   */\n      sstore\n        /* \"#utility.yul\":13403:13404   */\n      0x01\n        /* \"#utility.yul\":13395:13401   */\n      dup3\n        /* \"#utility.yul\":13391:13405   */\n      add\n        /* \"#utility.yul\":13381:13405   */\n      swap2\n      pop\n        /* \"#utility.yul\":13450:13452   */\n      0x20\n        /* \"#utility.yul\":13439:13448   */\n      dup6\n        /* \"#utility.yul\":13435:13453   */\n      add\n        /* \"#utility.yul\":13422:13453   */\n      swap5\n      pop\n        /* \"#utility.yul\":13296:13300   */\n      0x20\n        /* \"#utility.yul\":13293:13294   */\n      dup2\n        /* \"#utility.yul\":13289:13301   */\n      add\n        /* \"#utility.yul\":13284:13301   */\n      swap1\n      pop\n        /* \"#utility.yul\":13259:13467   */\n      jump(tag_239)\n    tag_241:\n        /* \"#utility.yul\":13495:13501   */\n      dup7\n        /* \"#utility.yul\":13486:13493   */\n      dup4\n        /* \"#utility.yul\":13483:13502   */\n      lt\n        /* \"#utility.yul\":13480:13659   */\n      iszero\n      tag_242\n      jumpi\n        /* \"#utility.yul\":13553:13562   */\n      dup5\n        /* \"#utility.yul\":13548:13551   */\n      dup10\n        /* \"#utility.yul\":13544:13563   */\n      add\n        /* \"#utility.yul\":13538:13564   */\n      mload\n        /* \"#utility.yul\":13596:13644   */\n      tag_243\n        /* \"#utility.yul\":13638:13642   */\n      0x1f\n        /* \"#utility.yul\":13630:13636   */\n      dup10\n        /* \"#utility.yul\":13626:13643   */\n      and\n        /* \"#utility.yul\":13615:13624   */\n      dup3\n        /* \"#utility.yul\":13596:13644   */\n      tag_90\n      jump\t// in\n    tag_243:\n        /* \"#utility.yul\":13588:13594   */\n      dup4\n        /* \"#utility.yul\":13581:13645   */\n      sstore\n        /* \"#utility.yul\":13503:13659   */\n      pop\n        /* \"#utility.yul\":13480:13659   */\n    tag_242:\n        /* \"#utility.yul\":13705:13706   */\n      0x01\n        /* \"#utility.yul\":13701:13702   */\n      0x02\n        /* \"#utility.yul\":13693:13699   */\n      dup9\n        /* \"#utility.yul\":13689:13703   */\n      mul\n        /* \"#utility.yul\":13685:13707   */\n      add\n        /* \"#utility.yul\":13679:13683   */\n      dup9\n        /* \"#utility.yul\":13672:13708   */\n      sstore\n        /* \"#utility.yul\":13107:13718   */\n      pop\n      pop\n      pop\n        /* \"#utility.yul\":13070:13957   */\n    tag_234:\n      pop\n        /* \"#utility.yul\":12660:13963   */\n      pop\n      pop\n      pop\n        /* \"#utility.yul\":12568:13963   */\n      pop\n      pop\n      jump\t// out\n\n    auxdata: 0xa264697066735822122077fb1af5ac596796a361dbaba655d2c3b470fc11373daca181946b8b8278dd4464736f6c63430008190033\n}\n",
				"bytecode": {
					"linkReferences": {},
					"object": "6080604052348015600e575f80fd5b50610bfd8061001c5f395ff3fe608060405234801561000f575f80fd5b506004361061004a575f3560e01c806387ecff4d1461004e5780638c5382261461006c578063b806da4b146100a0578063e98cbb86146100bc575b5f80fd5b6100566100ec565b6040516100639190610473565b60405180910390f35b610086600480360381019061008191906104c7565b6100f2565b6040516100979594939291906105a1565b60405180910390f35b6100ba60048036038101906100b59190610725565b6101c8565b005b6100d660048036038101906100d191906104c7565b6102ee565b6040516100e3919061086a565b60405180910390f35b60015481565b5f602052805f5260405f205f91509050805f015490806001015f9054906101000a900473ffffffffffffffffffffffffffffffffffffffff169080600201805461013b906108b7565b80601f0160208091040260200160405190810160405280929190818152602001828054610167906108b7565b80156101b25780601f10610189576101008083540402835291602001916101b2565b820191905f5260205f20905b81548152906001019060200180831161019557829003601f168201915b5050505050908060030154908060040154905085565b5f60015f8154809291906101db90610914565b9190505590506040518060a001604052808281526020013373ffffffffffffffffffffffffffffffffffffffff168152602001858152602001848152602001838152505f808381526020019081526020015f205f820151815f01556020820151816001015f6101000a81548173ffffffffffffffffffffffffffffffffffffffff021916908373ffffffffffffffffffffffffffffffffffffffff16021790555060408201518160020190816102919190610af8565b5060608201518160030155608082015181600401559050507f119b0a53a720df144f10086ea1f93c5c7b3b60d135089452f40a4e34757d581481338686866040516102e09594939291906105a1565b60405180910390a150505050565b6102f661041a565b5f808381526020019081526020015f206040518060a00160405290815f8201548152602001600182015f9054906101000a900473ffffffffffffffffffffffffffffffffffffffff1673ffffffffffffffffffffffffffffffffffffffff1673ffffffffffffffffffffffffffffffffffffffff16815260200160028201805461037f906108b7565b80601f01602080910402602001604051908101604052809291908181526020018280546103ab906108b7565b80156103f65780601f106103cd576101008083540402835291602001916103f6565b820191905f5260205f20905b8154815290600101906020018083116103d957829003601f168201915b50505050508152602001600382015481526020016004820154815250509050919050565b6040518060a001604052805f81526020015f73ffffffffffffffffffffffffffffffffffffffff168152602001606081526020015f81526020015f81525090565b5f819050919050565b61046d8161045b565b82525050565b5f6020820190506104865f830184610464565b92915050565b5f604051905090565b5f80fd5b5f80fd5b6104a68161045b565b81146104b0575f80fd5b50565b5f813590506104c18161049d565b92915050565b5f602082840312156104dc576104db610495565b5b5f6104e9848285016104b3565b91505092915050565b5f73ffffffffffffffffffffffffffffffffffffffff82169050919050565b5f61051b826104f2565b9050919050565b61052b81610511565b82525050565b5f81519050919050565b5f82825260208201905092915050565b8281835e5f83830152505050565b5f601f19601f8301169050919050565b5f61057382610531565b61057d818561053b565b935061058d81856020860161054b565b61059681610559565b840191505092915050565b5f60a0820190506105b45f830188610464565b6105c16020830187610522565b81810360408301526105d38186610569565b90506105e26060830185610464565b6105ef6080830184610464565b9695505050505050565b5f80fd5b5f80fd5b7f4e487b71000000000000000000000000000000000000000000000000000000005f52604160045260245ffd5b61063782610559565b810181811067ffffffffffffffff8211171561065657610655610601565b5b80604052505050565b5f61066861048c565b9050610674828261062e565b919050565b5f67ffffffffffffffff82111561069357610692610601565b5b61069c82610559565b9050602081019050919050565b828183375f83830152505050565b5f6106c96106c484610679565b61065f565b9050828152602081018484840111156106e5576106e46105fd565b5b6106f08482856106a9565b509392505050565b5f82601f83011261070c5761070b6105f9565b5b813561071c8482602086016106b7565b91505092915050565b5f805f6060848603121561073c5761073b610495565b5b5f84013567ffffffffffffffff81111561075957610758610499565b5b610765868287016106f8565b9350506020610776868287016104b3565b9250506040610787868287016104b3565b9150509250925092565b61079a8161045b565b82525050565b6107a981610511565b82525050565b5f82825260208201905092915050565b5f6107c982610531565b6107d381856107af565b93506107e381856020860161054b565b6107ec81610559565b840191505092915050565b5f60a083015f83015161080c5f860182610791565b50602083015161081f60208601826107a0565b506040830151848203604086015261083782826107bf565b915050606083015161084c6060860182610791565b50608083015161085f6080860182610791565b508091505092915050565b5f6020820190508181035f83015261088281846107f7565b905092915050565b7f4e487b71000000000000000000000000000000000000000000000000000000005f52602260045260245ffd5b5f60028204905060018216806108ce57607f821691505b6020821081036108e1576108e061088a565b5b50919050565b7f4e487b71000000000000000000000000000000000000000000000000000000005f52601160045260245ffd5b5f61091e8261045b565b91507fffffffffffffffffffffffffffffffffffffffffffffffffffffffffffffffff82036109505761094f6108e7565b5b600182019050919050565b5f819050815f5260205f209050919050565b5f6020601f8301049050919050565b5f82821b905092915050565b5f600883026109b77fffffffffffffffffffffffffffffffffffffffffffffffffffffffffffffffff8261097c565b6109c1868361097c565b95508019841693508086168417925050509392505050565b5f819050919050565b5f6109fc6109f76109f28461045b565b6109d9565b61045b565b9050919050565b5f819050919050565b610a15836109e2565b610a29610a2182610a03565b848454610988565b825550505050565b5f90565b610a3d610a31565b610a48818484610a0c565b505050565b5b81811015610a6b57610a605f82610a35565b600181019050610a4e565b5050565b601f821115610ab057610a818161095b565b610a8a8461096d565b81016020851015610a99578190505b610aad610aa58561096d565b830182610a4d565b50505b505050565b5f82821c905092915050565b5f610ad05f1984600802610ab5565b1980831691505092915050565b5f610ae88383610ac1565b9150826002028217905092915050565b610b0182610531565b67ffffffffffffffff811115610b1a57610b19610601565b5b610b2482546108b7565b610b2f828285610a6f565b5f60209050601f831160018114610b60575f8415610b4e578287015190505b610b588582610add565b865550610bbf565b601f198416610b6e8661095b565b5f5b82811015610b9557848901518255600182019150602085019450602081019050610b70565b86831015610bb25784890151610bae601f891682610ac1565b8355505b6001600288020188555050505b50505050505056fea264697066735822122077fb1af5ac596796a361dbaba655d2c3b470fc11373daca181946b8b8278dd4464736f6c63430008190033",
					"opcodes": "PUSH1 0x80 PUSH1 0x40 MSTORE CALLVALUE DUP1 ISZERO PUSH1 0xE JUMPI PUSH0 DUP1 REVERT JUMPDEST POP PUSH2 0xBFD DUP1 PUSH2 0x1C PUSH0 CODECOPY PUSH0 RETURN INVALID PUSH1 0x80 PUSH1 0x40 MSTORE CALLVALUE DUP1 ISZERO PUSH2 0xF JUMPI PUSH0 DUP1 REVERT JUMPDEST POP PUSH1 0x4 CALLDATASIZE LT PUSH2 0x4A JUMPI PUSH0 CALLDATALOAD PUSH1 0xE0 SHR DUP1 PUSH4 0x87ECFF4D EQ PUSH2 0x4E JUMPI DUP1 PUSH4 0x8C538226 EQ PUSH2 0x6C JUMPI DUP1 PUSH4 0xB806DA4B EQ PUSH2 0xA0 JUMPI DUP1 PUSH4 0xE98CBB86 EQ PUSH2 0xBC JUMPI JUMPDEST PUSH0 DUP1 REVERT JUMPDEST PUSH2 0x56 PUSH2 0xEC JUMP JUMPDEST PUSH1 0x40 MLOAD PUSH2 0x63 SWAP2 SWAP1 PUSH2 0x473 JUMP JUMPDEST PUSH1 0x40 MLOAD DUP1 SWAP2 SUB SWAP1 RETURN JUMPDEST PUSH2 0x86 PUSH1 0x4 DUP1 CALLDATASIZE SUB DUP2 ADD SWAP1 PUSH2 0x81 SWAP2 SWAP1 PUSH2 0x4C7 JUMP JUMPDEST PUSH2 0xF2 JUMP JUMPDEST PUSH1 0x40 MLOAD PUSH2 0x97 SWAP6 SWAP5 SWAP4 SWAP3 SWAP2 SWAP1 PUSH2 0x5A1 JUMP JUMPDEST PUSH1 0x40 MLOAD DUP1 SWAP2 SUB SWAP1 RETURN JUMPDEST PUSH2 0xBA PUSH1 0x4 DUP1 CALLDATASIZE SUB DUP2 ADD SWAP1 PUSH2 0xB5 SWAP2 SWAP1 PUSH2 0x725 JUMP JUMPDEST PUSH2 0x1C8 JUMP JUMPDEST STOP JUMPDEST PUSH2 0xD6 PUSH1 0x4 DUP1 CALLDATASIZE SUB DUP2 ADD SWAP1 PUSH2 0xD1 SWAP2 SWAP1 PUSH2 0x4C7 JUMP JUMPDEST PUSH2 0x2EE JUMP JUMPDEST PUSH1 0x40 MLOAD PUSH2 0xE3 SWAP2 SWAP1 PUSH2 0x86A JUMP JUMPDEST PUSH1 0x40 MLOAD DUP1 SWAP2 SUB SWAP1 RETURN JUMPDEST PUSH1 0x1 SLOAD DUP2 JUMP JUMPDEST PUSH0 PUSH1 0x20 MSTORE DUP1 PUSH0 MSTORE PUSH1 0x40 PUSH0 KECCAK256 PUSH0 SWAP2 POP SWAP1 POP DUP1 PUSH0 ADD SLOAD SWAP1 DUP1 PUSH1 0x1 ADD PUSH0 SWAP1 SLOAD SWAP1 PUSH2 0x100 EXP SWAP1 DIV PUSH20 0xFFFFFFFFFFFFFFFFFFFFFFFFFFFFFFFFFFFFFFFF AND SWAP1 DUP1 PUSH1 0x2 ADD DUP1 SLOAD PUSH2 0x13B SWAP1 PUSH2 0x8B7 JUMP JUMPDEST DUP1 PUSH1 0x1F ADD PUSH1 0x20 DUP1 SWAP2 DIV MUL PUSH1 0x20 ADD PUSH1 0x40 MLOAD SWAP1 DUP2 ADD PUSH1 0x40 MSTORE DUP1 SWAP3 SWAP2 SWAP1 DUP2 DUP2 MSTORE PUSH1 0x20 ADD DUP3 DUP1 SLOAD PUSH2 0x167 SWAP1 PUSH2 0x8B7 JUMP JUMPDEST DUP1 ISZERO PUSH2 0x1B2 JUMPI DUP1 PUSH1 0x1F LT PUSH2 0x189 JUMPI PUSH2 0x100 DUP1 DUP4 SLOAD DIV MUL DUP4 MSTORE SWAP2 PUSH1 0x20 ADD SWAP2 PUSH2 0x1B2 JUMP JUMPDEST DUP3 ADD SWAP2 SWAP1 PUSH0 MSTORE PUSH1 0x20 PUSH0 KECCAK256 SWAP1 JUMPDEST DUP2 SLOAD DUP2 MSTORE SWAP1 PUSH1 0x1 ADD SWAP1 PUSH1 0x20 ADD DUP1 DUP4 GT PUSH2 0x195 JUMPI DUP3 SWAP1 SUB PUSH1 0x1F AND DUP3 ADD SWAP2 JUMPDEST POP POP POP POP POP SWAP1 DUP1 PUSH1 0x3 ADD SLOAD SWAP1 DUP1 PUSH1 0x4 ADD SLOAD SWAP1 POP DUP6 JUMP JUMPDEST PUSH0 PUSH1 0x1 PUSH0 DUP2 SLOAD DUP1 SWAP3 SWAP2 SWAP1 PUSH2 0x1DB SWAP1 PUSH2 0x914 JUMP JUMPDEST SWAP2 SWAP1 POP SSTORE SWAP1 POP PUSH1 0x40 MLOAD DUP1 PUSH1 0xA0 ADD PUSH1 0x40 MSTORE DUP1 DUP3 DUP2 MSTORE PUSH1 0x20 ADD CALLER PUSH20 0xFFFFFFFFFFFFFFFFFFFFFFFFFFFFFFFFFFFFFFFF AND DUP2 MSTORE PUSH1 0x20 ADD DUP6 DUP2 MSTORE PUSH1 0x20 ADD DUP5 DUP2 MSTORE PUSH1 0x20 ADD DUP4 DUP2 MSTORE POP PUSH0 DUP1 DUP4 DUP2 MSTORE PUSH1 0x20 ADD SWAP1 DUP2 MSTORE PUSH1 0x20 ADD PUSH0 KECCAK256 PUSH0 DUP3 ADD MLOAD DUP2 PUSH0 ADD SSTORE PUSH1 0x20 DUP3 ADD MLOAD DUP2 PUSH1 0x1 ADD PUSH0 PUSH2 0x100 EXP DUP2 SLOAD DUP2 PUSH20 0xFFFFFFFFFFFFFFFFFFFFFFFFFFFFFFFFFFFFFFFF MUL NOT AND SWAP1 DUP4 PUSH20 0xFFFFFFFFFFFFFFFFFFFFFFFFFFFFFFFFFFFFFFFF AND MUL OR SWAP1 SSTORE POP PUSH1 0x40 DUP3 ADD MLOAD DUP2 PUSH1 0x2 ADD SWAP1 DUP2 PUSH2 0x291 SWAP2 SWAP1 PUSH2 0xAF8 JUMP JUMPDEST POP PUSH1 0x60 DUP3 ADD MLOAD DUP2 PUSH1 0x3 ADD SSTORE PUSH1 0x80 DUP3 ADD MLOAD DUP2 PUSH1 0x4 ADD SSTORE SWAP1 POP POP PUSH32 0x119B0A53A720DF144F10086EA1F93C5C7B3B60D135089452F40A4E34757D5814 DUP2 CALLER DUP7 DUP7 DUP7 PUSH1 0x40 MLOAD PUSH2 0x2E0 SWAP6 SWAP5 SWAP4 SWAP3 SWAP2 SWAP1 PUSH2 0x5A1 JUMP JUMPDEST PUSH1 0x40 MLOAD DUP1 SWAP2 SUB SWAP1 LOG1 POP POP POP POP JUMP JUMPDEST PUSH2 0x2F6 PUSH2 0x41A JUMP JUMPDEST PUSH0 DUP1 DUP4 DUP2 MSTORE PUSH1 0x20 ADD SWAP1 DUP2 MSTORE PUSH1 0x20 ADD PUSH0 KECCAK256 PUSH1 0x40 MLOAD DUP1 PUSH1 0xA0 ADD PUSH1 0x40 MSTORE SWAP1 DUP2 PUSH0 DUP3 ADD SLOAD DUP2 MSTORE PUSH1 0x20 ADD PUSH1 0x1 DUP3 ADD PUSH0 SWAP1 SLOAD SWAP1 PUSH2 0x100 EXP SWAP1 DIV PUSH20 0xFFFFFFFFFFFFFFFFFFFFFFFFFFFFFFFFFFFFFFFF AND PUSH20 0xFFFFFFFFFFFFFFFFFFFFFFFFFFFFFFFFFFFFFFFF AND PUSH20 0xFFFFFFFFFFFFFFFFFFFFFFFFFFFFFFFFFFFFFFFF AND DUP2 MSTORE PUSH1 0x20 ADD PUSH1 0x2 DUP3 ADD DUP1 SLOAD PUSH2 0x37F SWAP1 PUSH2 0x8B7 JUMP JUMPDEST DUP1 PUSH1 0x1F ADD PUSH1 0x20 DUP1 SWAP2 DIV MUL PUSH1 0x20 ADD PUSH1 0x40 MLOAD SWAP1 DUP2 ADD PUSH1 0x40 MSTORE DUP1 SWAP3 SWAP2 SWAP1 DUP2 DUP2 MSTORE PUSH1 0x20 ADD DUP3 DUP1 SLOAD PUSH2 0x3AB SWAP1 PUSH2 0x8B7 JUMP JUMPDEST DUP1 ISZERO PUSH2 0x3F6 JUMPI DUP1 PUSH1 0x1F LT PUSH2 0x3CD JUMPI PUSH2 0x100 DUP1 DUP4 SLOAD DIV MUL DUP4 MSTORE SWAP2 PUSH1 0x20 ADD SWAP2 PUSH2 0x3F6 JUMP JUMPDEST DUP3 ADD SWAP2 SWAP1 PUSH0 MSTORE PUSH1 0x20 PUSH0 KECCAK256 SWAP1 JUMPDEST DUP2 SLOAD DUP2 MSTORE SWAP1 PUSH1 0x1 ADD SWAP1 PUSH1 0x20 ADD DUP1 DUP4 GT PUSH2 0x3D9 JUMPI DUP3 SWAP1 SUB PUSH1 0x1F AND DUP3 ADD SWAP2 JUMPDEST POP POP POP POP POP DUP2 MSTORE PUSH1 0x20 ADD PUSH1 0x3 DUP3 ADD SLOAD DUP2 MSTORE PUSH1 0x20 ADD PUSH1 0x4 DUP3 ADD SLOAD DUP2 MSTORE POP POP SWAP1 POP SWAP2 SWAP1 POP JUMP JUMPDEST PUSH1 0x40 MLOAD DUP1 PUSH1 0xA0 ADD PUSH1 0x40 MSTORE DUP1 PUSH0 DUP2 MSTORE PUSH1 0x20 ADD PUSH0 PUSH20 0xFFFFFFFFFFFFFFFFFFFFFFFFFFFFFFFFFFFFFFFF AND DUP2 MSTORE PUSH1 0x20 ADD PUSH1 0x60 DUP2 MSTORE PUSH1 0x20 ADD PUSH0 DUP2 MSTORE PUSH1 0x20 ADD PUSH0 DUP2 MSTORE POP SWAP1 JUMP JUMPDEST PUSH0 DUP2 SWAP1 POP SWAP2 SWAP1 POP JUMP JUMPDEST PUSH2 0x46D DUP2 PUSH2 0x45B JUMP JUMPDEST DUP3 MSTORE POP POP JUMP JUMPDEST PUSH0 PUSH1 0x20 DUP3 ADD SWAP1 POP PUSH2 0x486 PUSH0 DUP4 ADD DUP5 PUSH2 0x464 JUMP JUMPDEST SWAP3 SWAP2 POP POP JUMP JUMPDEST PUSH0 PUSH1 0x40 MLOAD SWAP1 POP SWAP1 JUMP JUMPDEST PUSH0 DUP1 REVERT JUMPDEST PUSH0 DUP1 REVERT JUMPDEST PUSH2 0x4A6 DUP2 PUSH2 0x45B JUMP JUMPDEST DUP2 EQ PUSH2 0x4B0 JUMPI PUSH0 DUP1 REVERT JUMPDEST POP JUMP JUMPDEST PUSH0 DUP2 CALLDATALOAD SWAP1 POP PUSH2 0x4C1 DUP2 PUSH2 0x49D JUMP JUMPDEST SWAP3 SWAP2 POP POP JUMP JUMPDEST PUSH0 PUSH1 0x20 DUP3 DUP5 SUB SLT ISZERO PUSH2 0x4DC JUMPI PUSH2 0x4DB PUSH2 0x495 JUMP JUMPDEST JUMPDEST PUSH0 PUSH2 0x4E9 DUP5 DUP3 DUP6 ADD PUSH2 0x4B3 JUMP JUMPDEST SWAP2 POP POP SWAP3 SWAP2 POP POP JUMP JUMPDEST PUSH0 PUSH20 0xFFFFFFFFFFFFFFFFFFFFFFFFFFFFFFFFFFFFFFFF DUP3 AND SWAP1 POP SWAP2 SWAP1 POP JUMP JUMPDEST PUSH0 PUSH2 0x51B DUP3 PUSH2 0x4F2 JUMP JUMPDEST SWAP1 POP SWAP2 SWAP1 POP JUMP JUMPDEST PUSH2 0x52B DUP2 PUSH2 0x511 JUMP JUMPDEST DUP3 MSTORE POP POP JUMP JUMPDEST PUSH0 DUP2 MLOAD SWAP1 POP SWAP2 SWAP1 POP JUMP JUMPDEST PUSH0 DUP3 DUP3 MSTORE PUSH1 0x20 DUP3 ADD SWAP1 POP SWAP3 SWAP2 POP POP JUMP JUMPDEST DUP3 DUP2 DUP4 MCOPY PUSH0 DUP4 DUP4 ADD MSTORE POP POP POP JUMP JUMPDEST PUSH0 PUSH1 0x1F NOT PUSH1 0x1F DUP4 ADD AND SWAP1 POP SWAP2 SWAP1 POP JUMP JUMPDEST PUSH0 PUSH2 0x573 DUP3 PUSH2 0x531 JUMP JUMPDEST PUSH2 0x57D DUP2 DUP6 PUSH2 0x53B JUMP JUMPDEST SWAP4 POP PUSH2 0x58D DUP2 DUP6 PUSH1 0x20 DUP7 ADD PUSH2 0x54B JUMP JUMPDEST PUSH2 0x596 DUP2 PUSH2 0x559 JUMP JUMPDEST DUP5 ADD SWAP2 POP POP SWAP3 SWAP2 POP POP JUMP JUMPDEST PUSH0 PUSH1 0xA0 DUP3 ADD SWAP1 POP PUSH2 0x5B4 PUSH0 DUP4 ADD DUP9 PUSH2 0x464 JUMP JUMPDEST PUSH2 0x5C1 PUSH1 0x20 DUP4 ADD DUP8 PUSH2 0x522 JUMP JUMPDEST DUP2 DUP2 SUB PUSH1 0x40 DUP4 ADD MSTORE PUSH2 0x5D3 DUP2 DUP7 PUSH2 0x569 JUMP JUMPDEST SWAP1 POP PUSH2 0x5E2 PUSH1 0x60 DUP4 ADD DUP6 PUSH2 0x464 JUMP JUMPDEST PUSH2 0x5EF PUSH1 0x80 DUP4 ADD DUP5 PUSH2 0x464 JUMP JUMPDEST SWAP7 SWAP6 POP POP POP POP POP POP JUMP JUMPDEST PUSH0 DUP1 REVERT JUMPDEST PUSH0 DUP1 REVERT JUMPDEST PUSH32 0x4E487B7100000000000000000000000000000000000000000000000000000000 PUSH0 MSTORE PUSH1 0x41 PUSH1 0x4 MSTORE PUSH1 0x24 PUSH0 REVERT JUMPDEST PUSH2 0x637 DUP3 PUSH2 0x559 JUMP JUMPDEST DUP2 ADD DUP2 DUP2 LT PUSH8 0xFFFFFFFFFFFFFFFF DUP3 GT OR ISZERO PUSH2 0x656 JUMPI PUSH2 0x655 PUSH2 0x601 JUMP JUMPDEST JUMPDEST DUP1 PUSH1 0x40 MSTORE POP POP POP JUMP JUMPDEST PUSH0 PUSH2 0x668 PUSH2 0x48C JUMP JUMPDEST SWAP1 POP PUSH2 0x674 DUP3 DUP3 PUSH2 0x62E JUMP JUMPDEST SWAP2 SWAP1 POP JUMP JUMPDEST PUSH0 PUSH8 0xFFFFFFFFFFFFFFFF DUP3 GT ISZERO PUSH2 0x693 JUMPI PUSH2 0x692 PUSH2 0x601 JUMP JUMPDEST JUMPDEST PUSH2 0x69C DUP3 PUSH2 0x559 JUMP JUMPDEST SWAP1 POP PUSH1 0x20 DUP2 ADD SWAP1 POP SWAP2 SWAP1 POP JUMP JUMPDEST DUP3 DUP2 DUP4 CALLDATACOPY PUSH0 DUP4 DUP4 ADD MSTORE POP POP POP JUMP JUMPDEST PUSH0 PUSH2 0x6C9 PUSH2 0x6C4 DUP5 PUSH2 0x679 JUMP JUMPDEST PUSH2 0x65F JUMP JUMPDEST SWAP1 POP DUP3 DUP2 MSTORE PUSH1 0x20 DUP2 ADD DUP5 DUP5 DUP5 ADD GT ISZERO PUSH2 0x6E5 JUMPI PUSH2 0x6E4 PUSH2 0x5FD JUMP JUMPDEST JUMPDEST PUSH2 0x6F0 DUP5 DUP3 DUP6 PUSH2 0x6A9 JUMP JUMPDEST POP SWAP4 SWAP3 POP POP POP JUMP JUMPDEST PUSH0 DUP3 PUSH1 0x1F DUP4 ADD SLT PUSH2 0x70C JUMPI PUSH2 0x70B PUSH2 0x5F9 JUMP JUMPDEST JUMPDEST DUP2 CALLDATALOAD PUSH2 0x71C DUP5 DUP3 PUSH1 0x20 DUP7 ADD PUSH2 0x6B7 JUMP JUMPDEST SWAP2 POP POP SWAP3 SWAP2 POP POP JUMP JUMPDEST PUSH0 DUP1 PUSH0 PUSH1 0x60 DUP5 DUP7 SUB SLT ISZERO PUSH2 0x73C JUMPI PUSH2 0x73B PUSH2 0x495 JUMP JUMPDEST JUMPDEST PUSH0 DUP5 ADD CALLDATALOAD PUSH8 0xFFFFFFFFFFFFFFFF DUP2 GT ISZERO PUSH2 0x759 JUMPI PUSH2 0x758 PUSH2 0x499 JUMP JUMPDEST JUMPDEST PUSH2 0x765 DUP7 DUP3 DUP8 ADD PUSH2 0x6F8 JUMP JUMPDEST SWAP4 POP POP PUSH1 0x20 PUSH2 0x776 DUP7 DUP3 DUP8 ADD PUSH2 0x4B3 JUMP JUMPDEST SWAP3 POP POP PUSH1 0x40 PUSH2 0x787 DUP7 DUP3 DUP8 ADD PUSH2 0x4B3 JUMP JUMPDEST SWAP2 POP POP SWAP3 POP SWAP3 POP SWAP3 JUMP JUMPDEST PUSH2 0x79A DUP2 PUSH2 0x45B JUMP JUMPDEST DUP3 MSTORE POP POP JUMP JUMPDEST PUSH2 0x7A9 DUP2 PUSH2 0x511 JUMP JUMPDEST DUP3 MSTORE POP POP JUMP JUMPDEST PUSH0 DUP3 DUP3 MSTORE PUSH1 0x20 DUP3 ADD SWAP1 POP SWAP3 SWAP2 POP POP JUMP JUMPDEST PUSH0 PUSH2 0x7C9 DUP3 PUSH2 0x531 JUMP JUMPDEST PUSH2 0x7D3 DUP2 DUP6 PUSH2 0x7AF JUMP JUMPDEST SWAP4 POP PUSH2 0x7E3 DUP2 DUP6 PUSH1 0x20 DUP7 ADD PUSH2 0x54B JUMP JUMPDEST PUSH2 0x7EC DUP2 PUSH2 0x559 JUMP JUMPDEST DUP5 ADD SWAP2 POP POP SWAP3 SWAP2 POP POP JUMP JUMPDEST PUSH0 PUSH1 0xA0 DUP4 ADD PUSH0 DUP4 ADD MLOAD PUSH2 0x80C PUSH0 DUP7 ADD DUP3 PUSH2 0x791 JUMP JUMPDEST POP PUSH1 0x20 DUP4 ADD MLOAD PUSH2 0x81F PUSH1 0x20 DUP7 ADD DUP3 PUSH2 0x7A0 JUMP JUMPDEST POP PUSH1 0x40 DUP4 ADD MLOAD DUP5 DUP3 SUB PUSH1 0x40 DUP7 ADD MSTORE PUSH2 0x837 DUP3 DUP3 PUSH2 0x7BF JUMP JUMPDEST SWAP2 POP POP PUSH1 0x60 DUP4 ADD MLOAD PUSH2 0x84C PUSH1 0x60 DUP7 ADD DUP3 PUSH2 0x791 JUMP JUMPDEST POP PUSH1 0x80 DUP4 ADD MLOAD PUSH2 0x85F PUSH1 0x80 DUP7 ADD DUP3 PUSH2 0x791 JUMP JUMPDEST POP DUP1 SWAP2 POP POP SWAP3 SWAP2 POP POP JUMP JUMPDEST PUSH0 PUSH1 0x20 DUP3 ADD SWAP1 POP DUP2 DUP2 SUB PUSH0 DUP4 ADD MSTORE PUSH2 0x882 DUP2 DUP5 PUSH2 0x7F7 JUMP JUMPDEST SWAP1 POP SWAP3 SWAP2 POP POP JUMP JUMPDEST PUSH32 0x4E487B7100000000000000000000000000000000000000000000000000000000 PUSH0 MSTORE PUSH1 0x22 PUSH1 0x4 MSTORE PUSH1 0x24 PUSH0 REVERT JUMPDEST PUSH0 PUSH1 0x2 DUP3 DIV SWAP1 POP PUSH1 0x1 DUP3 AND DUP1 PUSH2 0x8CE JUMPI PUSH1 0x7F DUP3 AND SWAP2 POP JUMPDEST PUSH1 0x20 DUP3 LT DUP2 SUB PUSH2 0x8E1 JUMPI PUSH2 0x8E0 PUSH2 0x88A JUMP JUMPDEST JUMPDEST POP SWAP2 SWAP1 POP JUMP JUMPDEST PUSH32 0x4E487B7100000000000000000000000000000000000000000000000000000000 PUSH0 MSTORE PUSH1 0x11 PUSH1 0x4 MSTORE PUSH1 0x24 PUSH0 REVERT JUMPDEST PUSH0 PUSH2 0x91E DUP3 PUSH2 0x45B JUMP JUMPDEST SWAP2 POP PUSH32 0xFFFFFFFFFFFFFFFFFFFFFFFFFFFFFFFFFFFFFFFFFFFFFFFFFFFFFFFFFFFFFFFF DUP3 SUB PUSH2 0x950 JUMPI PUSH2 0x94F PUSH2 0x8E7 JUMP JUMPDEST JUMPDEST PUSH1 0x1 DUP3 ADD SWAP1 POP SWAP2 SWAP1 POP JUMP JUMPDEST PUSH0 DUP2 SWAP1 POP DUP2 PUSH0 MSTORE PUSH1 0x20 PUSH0 KECCAK256 SWAP1 POP SWAP2 SWAP1 POP JUMP JUMPDEST PUSH0 PUSH1 0x20 PUSH1 0x1F DUP4 ADD DIV SWAP1 POP SWAP2 SWAP1 POP JUMP JUMPDEST PUSH0 DUP3 DUP3 SHL SWAP1 POP SWAP3 SWAP2 POP POP JUMP JUMPDEST PUSH0 PUSH1 0x8 DUP4 MUL PUSH2 0x9B7 PUSH32 0xFFFFFFFFFFFFFFFFFFFFFFFFFFFFFFFFFFFFFFFFFFFFFFFFFFFFFFFFFFFFFFFF DUP3 PUSH2 0x97C JUMP JUMPDEST PUSH2 0x9C1 DUP7 DUP4 PUSH2 0x97C JUMP JUMPDEST SWAP6 POP DUP1 NOT DUP5 AND SWAP4 POP DUP1 DUP7 AND DUP5 OR SWAP3 POP POP POP SWAP4 SWAP3 POP POP POP JUMP JUMPDEST PUSH0 DUP2 SWAP1 POP SWAP2 SWAP1 POP JUMP JUMPDEST PUSH0 PUSH2 0x9FC PUSH2 0x9F7 PUSH2 0x9F2 DUP5 PUSH2 0x45B JUMP JUMPDEST PUSH2 0x9D9 JUMP JUMPDEST PUSH2 0x45B JUMP JUMPDEST SWAP1 POP SWAP2 SWAP1 POP JUMP JUMPDEST PUSH0 DUP2 SWAP1 POP SWAP2 SWAP1 POP JUMP JUMPDEST PUSH2 0xA15 DUP4 PUSH2 0x9E2 JUMP JUMPDEST PUSH2 0xA29 PUSH2 0xA21 DUP3 PUSH2 0xA03 JUMP JUMPDEST DUP5 DUP5 SLOAD PUSH2 0x988 JUMP JUMPDEST DUP3 SSTORE POP POP POP POP JUMP JUMPDEST PUSH0 SWAP1 JUMP JUMPDEST PUSH2 0xA3D PUSH2 0xA31 JUMP JUMPDEST PUSH2 0xA48 DUP2 DUP5 DUP5 PUSH2 0xA0C JUMP JUMPDEST POP POP POP JUMP JUMPDEST JUMPDEST DUP2 DUP2 LT ISZERO PUSH2 0xA6B JUMPI PUSH2 0xA60 PUSH0 DUP3 PUSH2 0xA35 JUMP JUMPDEST PUSH1 0x1 DUP2 ADD SWAP1 POP PUSH2 0xA4E JUMP JUMPDEST POP POP JUMP JUMPDEST PUSH1 0x1F DUP3 GT ISZERO PUSH2 0xAB0 JUMPI PUSH2 0xA81 DUP2 PUSH2 0x95B JUMP JUMPDEST PUSH2 0xA8A DUP5 PUSH2 0x96D JUMP JUMPDEST DUP2 ADD PUSH1 0x20 DUP6 LT ISZERO PUSH2 0xA99 JUMPI DUP2 SWAP1 POP JUMPDEST PUSH2 0xAAD PUSH2 0xAA5 DUP6 PUSH2 0x96D JUMP JUMPDEST DUP4 ADD DUP3 PUSH2 0xA4D JUMP JUMPDEST POP POP JUMPDEST POP POP POP JUMP JUMPDEST PUSH0 DUP3 DUP3 SHR SWAP1 POP SWAP3 SWAP2 POP POP JUMP JUMPDEST PUSH0 PUSH2 0xAD0 PUSH0 NOT DUP5 PUSH1 0x8 MUL PUSH2 0xAB5 JUMP JUMPDEST NOT DUP1 DUP4 AND SWAP2 POP POP SWAP3 SWAP2 POP POP JUMP JUMPDEST PUSH0 PUSH2 0xAE8 DUP4 DUP4 PUSH2 0xAC1 JUMP JUMPDEST SWAP2 POP DUP3 PUSH1 0x2 MUL DUP3 OR SWAP1 POP SWAP3 SWAP2 POP POP JUMP JUMPDEST PUSH2 0xB01 DUP3 PUSH2 0x531 JUMP JUMPDEST PUSH8 0xFFFFFFFFFFFFFFFF DUP2 GT ISZERO PUSH2 0xB1A JUMPI PUSH2 0xB19 PUSH2 0x601 JUMP JUMPDEST JUMPDEST PUSH2 0xB24 DUP3 SLOAD PUSH2 0x8B7 JUMP JUMPDEST PUSH2 0xB2F DUP3 DUP3 DUP6 PUSH2 0xA6F JUMP JUMPDEST PUSH0 PUSH1 0x20 SWAP1 POP PUSH1 0x1F DUP4 GT PUSH1 0x1 DUP2 EQ PUSH2 0xB60 JUMPI PUSH0 DUP5 ISZERO PUSH2 0xB4E JUMPI DUP3 DUP8 ADD MLOAD SWAP1 POP JUMPDEST PUSH2 0xB58 DUP6 DUP3 PUSH2 0xADD JUMP JUMPDEST DUP7 SSTORE POP PUSH2 0xBBF JUMP JUMPDEST PUSH1 0x1F NOT DUP5 AND PUSH2 0xB6E DUP7 PUSH2 0x95B JUMP JUMPDEST PUSH0 JUMPDEST DUP3 DUP2 LT ISZERO PUSH2 0xB95 JUMPI DUP5 DUP10 ADD MLOAD DUP3 SSTORE PUSH1 0x1 DUP3 ADD SWAP2 POP PUSH1 0x20 DUP6 ADD SWAP5 POP PUSH1 0x20 DUP2 ADD SWAP1 POP PUSH2 0xB70 JUMP JUMPDEST DUP7 DUP4 LT ISZERO PUSH2 0xBB2 JUMPI DUP5 DUP10 ADD MLOAD PUSH2 0xBAE PUSH1 0x1F DUP10 AND DUP3 PUSH2 0xAC1 JUMP JUMPDEST DUP4 SSTORE POP JUMPDEST PUSH1 0x1 PUSH1 0x2 DUP9 MUL ADD DUP9 SSTORE POP POP POP JUMPDEST POP POP POP POP POP POP JUMP INVALID LOG2 PUSH5 0x6970667358 0x22 SLT KECCAK256 PUSH24 0xFB1AF5AC596796A361DBABA655D2C3B470FC11373DACA181 SWAP5 PUSH12 0x8B8278DD4464736F6C634300 ADDMOD NOT STOP CALLER "
				},
				"gasEstimates": {
					"creation": {
						"codeDepositCost": "613800",
						"executionCost": "643",
						"totalCost": "614443"
					},
					"external": {
						"getWarranty(uint256)": "infinite",
						"mintWarranty(string,uint256,uint256)": "infinite",
						"nextWarrantyId()": "2403",
						"warranties(uint256)": "infinite"
					}
				},
				"methodIdentifiers": {
					"getWarranty(uint256)": "e98cbb86",
					"mintWarranty(string,uint256,uint256)": "b806da4b",
					"nextWarrantyId()": "87ecff4d",
					"warranties(uint256)": "8c538226"
				}
			},
			"storageLayout": {
				"storage": [
					{
						"astId": 17,
						"contract": "contracts/Warranty.sol:ProductWarranty",
						"label": "warranties",
						"offset": 0,
						"slot": "0",
						"type": "t_mapping(t_uint256,t_struct(Warranty)12_storage)"
					},
					{
						"astId": 19,
						"contract": "contracts/Warranty.sol:ProductWarranty",
						"label": "nextWarrantyId",
						"offset": 0,
						"slot": "1",
						"type": "t_uint256"
					}
				],
				"types": {
					"t_address": {
						"encoding": "inplace",
						"label": "address",
						"numberOfBytes": "20"
					},
					"t_mapping(t_uint256,t_struct(Warranty)12_storage)": {
						"encoding": "mapping",
						"key": "t_uint256",
						"label": "mapping(uint256 => struct ProductWarranty.Warranty)",
						"numberOfBytes": "32",
						"value": "t_struct(Warranty)12_storage"
					},
					"t_string_storage": {
						"encoding": "bytes",
						"label": "string",
						"numberOfBytes": "32"
					},
					"t_struct(Warranty)12_storage": {
						"encoding": "inplace",
						"label": "struct ProductWarranty.Warranty",
						"members": [
							{
								"astId": 3,
								"contract": "contracts/Warranty.sol:ProductWarranty",
								"label": "id",
								"offset": 0,
								"slot": "0",
								"type": "t_uint256"
							},
							{
								"astId": 5,
								"contract": "contracts/Warranty.sol:ProductWarranty",
								"label": "owner",
								"offset": 0,
								"slot": "1",
								"type": "t_address"
							},
							{
								"astId": 7,
								"contract": "contracts/Warranty.sol:ProductWarranty",
								"label": "productName",
								"offset": 0,
								"slot": "2",
								"type": "t_string_storage"
							},
							{
								"astId": 9,
								"contract": "contracts/Warranty.sol:ProductWarranty",
								"label": "purchaseDate",
								"offset": 0,
								"slot": "3",
								"type": "t_uint256"
							},
							{
								"astId": 11,
								"contract": "contracts/Warranty.sol:ProductWarranty",
								"label": "expirationDate",
								"offset": 0,
								"slot": "4",
								"type": "t_uint256"
							}
						],
						"numberOfBytes": "160"
					},
					"t_uint256": {
						"encoding": "inplace",
						"label": "uint256",
						"numberOfBytes": "32"
					}
				}
			},
			"userdoc": {
				"kind": "user",
				"methods": {},
				"version": 1
			}
		}
	}
}